:10000000F5C0000021C100001FC100001DC100009B
:100010001BC1000019C1000017C1000015C100007C
:1000200013C1000011C100000FC100000DC100008C
:100030000BC1000009C1000007C1000005C100009C
:1000400003C1000001C10000FFC00000FDC00000AE
:10005000FBC00000F9C00000F7C0000064C300004E
:10006000F3C000002AC30000FFC20000EDC0000082
:10007000EBC00000E9C00000E7C00000E5C00000E0
:10008000E3C00000E1C00000DFC00000DDC00000F0
:10009000DBC00000D9C00000D7C00000D5C0000000
:1000A000D3C00000D1C00000CFC00000CDC0000010
:1000B000CBC00000C9C00000C7C00000C5C0000020
:1000C000C3C00000C1C00000BFC00000BDC0000030
:1000D000BBC00000B9C00000B7C00000B5C0000040
:1000E000B3C0000000000A0B02090C0D0E08070344
:1000F00004010000000000000000000000000000FB
:1001000000000000000000000000000000000000EF
:1001100012111000000000000000000000000000AC
:100120000000000000000000000000002200250088
:1001300028002B002E0031003400020100000501D0
:1001400008010B0100002100240027002A002D00D7
:100150003000330001010000040107010A01050518
:100160000505070508080808020202020A0A08082D
:10017000040404040101010101010101030303035B
:1001800003030303040707070C0C0C0C0C0C0C0CEA
:100190000202020206060606060606060B0B0B0BFB
:1001A0000B0B0B0B01021020200808102040102020
:1001B000408002010201080402010102040810202B
:1001C0004080804020100804020180040201804029
:1001D0002010080402010804020101020408102092
:1001E00040800102040810204080760511241FBEC3
:1001F000CFEFD1E2DEBFCDBF00E00CBF14E0A0E046
:10020000B2E0EEE9FBE000E00BBF02C007900D9208
:10021000AC34B107D9F725E0ACE4B4E001C01D92DD
:10022000A831B207E1F710E0C6EFD0E000E005C06A
:1002300021970109802FFE01A8D4C53FD10780E096
:100240000807B1F7BAD2A9C4DBCE90E0FC01EC55A7
:10025000FE4F2491825A9E4FFC018491882399F08D
:1002600090E0880F991FFC01EC5BFE4FA591B491C3
:10027000FC01E65DFE4F859194918FB7F894EC9167
:10028000E22BEC938FBF0895282F30E0F901EC5159
:10029000FF4F9491F901EC55FE4F4491225A3E4F85
:1002A000F9012491222309F431C0992309F19150D5
:1002B0009231F0F4E92FF0E08827EF59FE4F8F4F8D
:1002C00064C48F019301730187018B01780196014A
:1002D0009C01A001A601AA01AE01B401B8017801F8
:1002E000BC01C201C601809180008F77809380009D
:1002F000E22FF0E0EE0FFF1FE65DFE4FA591B491F7
:100300008FB7F894EC914E2B4C938FBF089580914A
:1003100080008F7DEBCF80918000877FE7CF84B511
:100320008F7784BDE5CF84B58F7DFBCF8091B00002
:100330008F778093B000DCCF8091B0008F7DF9CFB4
:10034000809190008F7780939000D2CF8091900021
:100350008F7DF9CF80919000877FF5CF8091A000AD
:100360008F778093A000C4CF8091A0008F7DF9CFBC
:100370008091A000877FF5CF809120018F778093B7
:100380002001B6CF809120018F7DF9CF809120018F
:10039000877FF5CFAF92BF92CF92DF92EF92FF921D
:1003A0000F931F93CF93DF936C017B018B01040F9D
:1003B000151FEB015E01AE18BF08C017D10759F039
:1003C0006991D601ED91FC910190F081E02DC6017B
:1003D0001995892B79F7C501DF91CF911F910F9165
:1003E000FF90EF90DF90CF90BF90AF900895FC0109
:1003F000538D448D252F30E0842F90E0821B930B8A
:10040000541710F0CF96089501970895FC01918D2F
:10041000828D981761F0A28DAE0FBF2FB11D5D9632
:100420008C91928D9F5F9F73928F90E008958FEFD4
:100430009FEF0895FC01918D828D981731F0828D88
:10044000E80FF11D858D90E008958FEF9FEF0895DF
:10045000FC01918D228D892F90E0805C9F4F821B43
:1004600091098F73992708958BE794E0F1DF21E0DC
:10047000892B09F420E0822F0895FC01A48DA80F98
:10048000B92FB11DA35ABF4F2C91848D90E00196D6
:100490008F739927848FA689B7892C93A089B189F6
:1004A0008C91837080648C93938D848D981306C097
:1004B0000288F389E02D80818F7D80830895EF92FB
:1004C000FF920F931F93CF93DF93EC0181E0888F0E
:1004D0009B8D8C8D98131AC0E889F989808185FFDE
:1004E00015C09FB7F894EE89FF896083E889F98980
:1004F00080818370806480839FBF81E090E0DF9182
:10050000CF911F910F91FF90EF900895F62E0B8DD4
:1005100010E00F5F1F4F0F731127E02E8C8D8E118F
:100520000BC00FB607FCFACFE889F989808185FFF7
:10053000F5CFCE01A2DFF2CFEB8DEC0FFD2FF11D39
:10054000E35AFF4FF0829FB7F8940B8FEA89FB893B
:1005500080818062D0CFCF93DF93EC01888D882398
:10056000B1F0AA89BB89E889F9898C9185FD03C01E
:10057000808186FD0CC00FB607FCF7CF8C9185FFFC
:10058000F2CF808185FFEDCFCE0177DFEACFDF911B
:10059000CF910895CF93C1E08BE794E059DF892B89
:1005A00091F08BE794E032DF90917804E92FF0E04E
:1005B000E959FB4F80839F5F909378048A3061F7FD
:1005C000C0937904E9CFCF9108954EDF8111E2DF26
:1005D00080E090E0892B49F080E090E0892B29F0C1
:1005E0000E94000081110E94000080E090E0892BB1
:1005F00049F080E090E0892B29F00E9400008111F1
:100600000E94000080E090E0892B49F080E090E0BB
:10061000892B29F00E94000081110C94000008959C
:10062000CF93DF93D72FC82F862F0FDE8D2F0DDEB0
:100630008C2FDF91CF9109CEFC0101900020E9F7CA
:100640003197AF01481B590BBC018BE794E0A2CE58
:10065000CF93DF93F1DFEC0182E292E0EDDF8C0FCC
:100660009D1FDF91CF9108951F920F920FB60F92A9
:1006700011240BB60F922F933F934F935F936F9379
:100680007F938F939F93AF93BF93EF93FF938BE7EA
:1006900094E0F3DEFF91EF91BF91AF919F918F9125
:1006A0007F916F915F914F913F912F910F900BBE72
:1006B0000F900FBE0F901F9018951F920F920FB6BC
:1006C0000F9211240BB60F922F938F939F93EF935A
:1006D000FF93E0918B04F0918C048081E091910470
:1006E000F091920482FD1DC09081809194048F5FEF
:1006F0008F7320919504821741F0E0919404F0E00B
:10070000E558FB4F958F80939404FF91EF919F9153
:100710008F912F910F900BBE0F900FBE0F901F90D7
:1007200018958081F2CF1F920F920FB60F9211246D
:100730002F933F938F939F93AF93BF9380915304D5
:1007400090915404A0915504B091560430915204F4
:1007500023E0230F2D3758F50196A11DB11D2093DD
:1007600052048093530490935404A0935504B0937F
:10077000560480914E0490914F04A0915004B09182
:1007800051040196A11DB11D80934E0490934F0416
:10079000A0935004B0935104BF91AF919F918F915A
:1007A0003F912F910F900FBE0F901F90189526E844
:1007B000230F0296A11DB11DD2CFCF93DF93CDB7EA
:1007C000DEB7A1970FB6F894DEBF0FBECDBF789409
:1007D00084B5826084BD84B5816084BD85B5826046
:1007E00085BD85B5816085BD80916E0081608093F7
:1007F0006E00109281008091810082608093810060
:10080000809181008160809381008091800081606F
:10081000809380008091B10084608093B1008091CA
:10082000B00081608093B0008091910082608093DD
:10083000910080919100816080939100809190005F
:100840008160809390008091A10082608093A100DC
:100850008091A10081608093A1008091A0008160BF
:100860008093A0008091210182608093210180917A
:10087000210181608093210180912001816080931A
:10088000200180917A00846080937A0080917A00C0
:10089000826080937A0080917A00816080937A00F0
:1008A00080917A00806880937A001092C100E09174
:1008B0008B04F0918C0482E08083E0918704F091B6
:1008C00088041082E0918904F0918A0480E1F82E76
:1008D000F08210929304E0918F04F091900486E0EE
:1008E0008083E0918D04F0918E048081806180830B
:1008F000E0918D04F0918E04808188608083E09186
:100900008D04F0918E04808180688083E0918D0455
:10091000F0918E0480818F7D808385E292E098DE65
:100920008FE392E095DE8CE492E092DE8CE592E03B
:100930008FDE8CE692E08CDE8CE792E089DE8CE83C
:1009400092E086DE8CE992E083DE83EA92E080DE4C
:1009500082EB92E07DDE84E292E07ADE8BEC92E044
:1009600077DE87ED92E074DE87EE92E071DE84E25E
:1009700092E06EDE88EF92E06BDE8FE093E068DE5F
:100980008FE593E065DE80EB93E062DE81E094E04A
:100990005FDE84E292E05CDE87E294E059DE609103
:1009A0001E0270911F02809120029091210238DE78
:1009B00060911A0270911B0280911C0290911D029D
:1009C0002FDE6091160270911702809118029091AB
:1009D000190226DE609112027091130280911402B6
:1009E000909115021DDE60911E0270911F02809190
:1009F00020029091210214DE86E246DC88E344DC8A
:100A00008EE342DC8EE140DC86E23EDCF09277044D
:100A100097E6892E94E0992E20E1722E3AE0232E5B
:100A2000312C412C512C5E018CE1A80EB11C80911F
:100A30007904882309F449C080916704813009F062
:100A40003BC0F0906804E090690460906C0419A2C7
:100A50006E01E1E2CE0ED11C24E635E640E050E026
:100A6000CA01B901A20191016ED0605DF6016293E5
:100A70006F01EA15FB05A1F7C501DEDD82E292E018
:100A8000DBDDF3E0FF1679F1FF1508F181E0F816E0
:100A900021F1E2E0FE1621F1F801E082E1826282BA
:100AA00013828DE394E0C8DD66E08BE794E007DD18
:100AB0006AE08BE794E003DDF401872D11928A95BB
:100AC000E9F710927804109279047FDDB0CFF5E059
:100AD000FF1510F307E514E0DFCF03E614E0DCCFE9
:100AE0000FE514E0D9CF0BE514E0D6CFEBE7F4E047
:100AF0001382128288EE93E0A0E0B0E084839583B5
:100B0000A683B78384E092E09183808385EC90E0B4
:100B10009587848784EC90E09787868780EC90E0C7
:100B2000918B808B81EC90E0938B828B82EC90E0B8
:100B3000958B848B86EC90E0978B868B118E128E32
:100B4000138E148E0895A1E21A2EAA1BBB1BFD0161
:100B50000DC0AA1FBB1FEE1FFF1FA217B307E4079C
:100B6000F50720F0A21BB30BE40BF50B661F771FF4
:100B7000881F991F1A9469F76095709580959095D4
:100B80009B01AC01BD01CF010895EE0FFF1F881F2F
:0E0B90008BBF0790F691E02D1994F894FFCFDB
:100B9E00000000005F02CA01F701AB022802060244
:100BAE001A0222241EC8302E3EC83D3C38C83736A5
:100BBE0026C80D0A0052414D507320312E34207339
:100BCE00746570706572206472697665722E00208D
:100BDE00204D4F544F525F4E554D3A00202020204D
:100BEE0020205820202020203D20300020202020B2
:100BFE0020205920202020203D20310020202020A0
:100C0E0020205A20202020203D203200202020208D
:100C1E0020204531202020203D2033002020202080
:100C2E0020204532202020203D203400202020206E
:100C3E0020200020205041434B45545F54595045CD
:100C4E00530020202020202030783031203D206D90
:100C5E006F746F725F777269746500202044495219
:100C6E00454354494F4E002020202020203078301C
:100C7E0030203D2043570020202020202030783087
:100C8E0031203D204343570020204D4F544F5220DA
:100C9E004D4F56452050524F544F434F4C3A002023
:100CAE002020202020202020202020202020202036
:100CBE002020202020203020202020202020202016
:100CCE0020202020202031202020202032202020F3
:100CDE0020203320202020202020203420202020DF
:100CEE0020202035202020202020202020360020EB
:100CFE00204D4F544F525F5041434B4554203D20A1
:100D0E005041434B45545F545950455F43484152FF
:100D1E00204D4F544F525F4E554D20444952205353
:100D2E00544550535F312053544550535F32204D3C
:100D3E00494C4C495F4245545745454E205C6E0028
:100D4E0020204D4F544F525F5041434B4554203D50
:100D5E002020202030312020202020202020202064
:100D6E002020202020203031202020203030202034
:100D7E002020303320202020204538202020202005
:100D8E0020202030352020202020202020203041FF
:100D9E000020204D4F544F525F5041434B4554203D
:100DAE003D2020202030782030313031303030332B
:100DBE0045383035304100202048414C5420202009
:100DCE002020202020203D203078304600536574AE
:0C0DDE007570206D6F746F723A20000079
:00000001FF
