:10000000F5C0000021C100001FC100001DC100009B
:100010001BC1000019C1000017C1000015C100007C
:1000200013C1000011C100000FC100000DC100008C
:100030000BC1000009C1000007C1000005C100009C
:1000400003C1000001C10000FFC00000FDC00000AE
:10005000FBC00000F9C00000F7C00000A4C300000E
:10006000F3C000006AC300003FC30000EDC0000001
:10007000EBC00000E9C00000E7C00000E5C00000E0
:10008000E3C00000E1C00000DFC00000DDC00000F0
:10009000DBC00000D9C00000D7C00000D5C0000000
:1000A000D3C00000D1C00000CFC00000CDC0000010
:1000B000CBC00000C9C00000C7C00000C5C0000020
:1000C000C3C00000C1C00000BFC00000BDC0000030
:1000D000BBC00000B9C00000B7C00000B5C0000040
:1000E000B3C0000000000A0B02090C0D0E08070344
:1000F00004010000000000000000000000000000FB
:1001000000000000000000000000000000000000EF
:1001100012111000000000000000000000000000AC
:100120000000000000000000000000002200250088
:1001300028002B002E0031003400020100000501D0
:1001400008010B0100002100240027002A002D00D7
:100150003000330001010000040107010A01050518
:100160000505070508080808020202020A0A08082D
:10017000040404040101010101010101030303035B
:1001800003030303040707070C0C0C0C0C0C0C0CEA
:100190000202020206060606060606060B0B0B0BFB
:1001A0000B0B0B0B01021020200808102040102020
:1001B000408002010201080402010102040810202B
:1001C0004080804020100804020180040201804029
:1001D0002010080402010804020101020408102092
:1001E000408001020408102040800D0611241FBE2B
:1001F000CFEFD1E2DEBFCDBF00E00CBF14E0A0E046
:10020000B2E0E8E8FCE000E00BBF02C007900D920E
:10021000A036B107D9F725E0A0E6B4E001C01D92F1
:10022000AC32B207E1F710E0C6EFD0E000E005C065
:1002300021970109802FFE011DD5C53FD10780E020
:100240000807B1F7FAD21EC5DBCE90E0FC01EC55F1
:10025000FE4F2491825A9E4FFC018491882399F08D
:1002600090E0880F991FFC01EC5BFE4FA591B491C3
:10027000FC01E65DFE4F859194918FB7F894EC9167
:10028000E22BEC938FBF0895AF92BF92CF92DF9293
:10029000EF92FF920F931F93CF93DF936C017B013B
:1002A0008B01040F151FEB015E01AE18BF08C017CC
:1002B000D10759F06991D601ED91FC910190F0813F
:1002C000E02DC6011995892B79F7C501DF91CF91F2
:1002D0001F910F91FF90EF90DF90CF90BF90AF9064
:1002E0000895FC01538D448D252F30E0842F90E03C
:1002F000821B930B541710F0CF9608950197089521
:10030000FC01918D828D981761F0A28DAE0FBF2FE9
:10031000B11D5D968C91928D9F5F9F73928F90E03F
:1003200008958FEF9FEF0895FC01918D828D9817AE
:1003300031F0828DE80FF11D858D90E008958FEFEB
:100340009FEF0895FC01918D228D892F90E0805CB4
:100350009F4F821B91098F73992708958FE894E02E
:10036000F1DF21E0892B09F420E0822F0895FC01C0
:10037000A48DA80FB92FB11DA35ABF4F2C91848D06
:1003800090E001968F739927848FA689B7892C9363
:10039000A089B1898C91837080648C93938D848DB6
:1003A000981306C00288F389E02D80818F7D8083B9
:1003B0000895EF92FF920F931F93CF93DF93EC0179
:1003C00081E0888F9B8D8C8D98131AC0E889F989FC
:1003D000808185FF15C09FB7F894EE89FF896083FF
:1003E000E889F98980818370806480839FBF81E080
:1003F00090E0DF91CF911F910F91FF90EF900895C2
:10040000F62E0B8D10E00F5F1F4F0F731127E02E9C
:100410008C8D8E110BC00FB607FCFACFE889F989D5
:10042000808185FFF5CFCE01A2DFF2CFEB8DEC0FFF
:10043000FD2FF11DE35AFF4FF0829FB7F8940B8F09
:10044000EA89FB8980818062D0CFCF93DF93EC0172
:10045000888D8823B1F0AA89BB89E889F9898C91B4
:1004600085FD03C0808186FD0CC00FB607FCF7CF69
:100470008C9185FFF2CF808185FFEDCFCE0177DFB4
:10048000EACFDF91CF910895CF93C1E08FE894E058
:1004900059DF892B91F08FE894E032DF90918C0442
:1004A000E92FF0E0E558FB4F80839F5F90938C0429
:1004B0008A3061F7C0938D04E9CFCF9108954EDF64
:1004C0008111E2DF80E090E0892B49F080E090E04C
:1004D000892B29F00E94000081110E94000080E019
:1004E00090E0892B49F080E090E0892B29F00E9470
:1004F000000081110E94000080E090E0892B49F00B
:1005000080E090E0892B29F00E94000081110C947A
:1005100000000895282F30E0F901EC51FF4F94912D
:10052000F901EC55FE4F4491225A3E4FF9012491B6
:10053000222309F434C0992309F191509231F0F447
:10054000E92FF0E08827E955FD4F8F4F93C3D8027C
:10055000DC02B902D002D402BE02DF02E502E902E7
:10056000EF02F302F702FD020103BE0205030B03D3
:100570000F03809180008F7780938000E22FF0E05E
:10058000EE0FFF1FE65DFE4FA591B4918FB7F89473
:10059000EC91611148C040954E234C938FBF089554
:1005A000809180008F7DE8CF80918000877FE4CFAD
:1005B00084B58F7784BDE2CF84B58F7DFBCF8091EA
:1005C000B0008F778093B000D9CF8091B0008F7D3D
:1005D000F9CF809190008F7780939000CFCF80915A
:1005E00090008F7DF9CF80919000877FF5CF80912B
:1005F000A0008F778093A000C1CF8091A0008F7D55
:10060000F9CF8091A000877FF5CF809120018F776F
:1006100080932001B3CF809120018F7DF9CF80910D
:100620002001877FF5CF4E2BB8CF3FB7F89480914C
:10063000770490917804A0917904B0917A0426B55A
:10064000A89B05C02F3F19F00196A11DB11D3FBF0A
:10065000BA2FA92F982F8827BC01CD01620F711DD9
:10066000811D911D42E0660F771F881F991F4A95D3
:10067000D1F70895CF93DF93D72FC82F862FE5DDCD
:100680008D2FE3DD8C2FDF91CF91DFCD833089F08B
:1006900028F4813059F0823031F008958630E8F73F
:1006A00082E694E008958AE694E008958EE694E068
:1006B000089586E694E00895FC0101900020E9F792
:1006C0003197AF01481B590BBC018FE894E0DCCD9A
:1006D000CF93DF93F1DFEC018CE292E0EDDF8C0F42
:1006E0009D1FDF91CF9108951F920F920FB60F9229
:1006F00011240BB60F922F933F934F935F936F93F9
:100700007F938F939F93AF93BF93EF93FF938FE864
:1007100094E02DDEFF91EF91BF91AF919F918F916A
:100720007F916F915F914F913F912F910F900BBEF1
:100730000F900FBE0F901F9018951F920F920FB63B
:100740000F9211240BB60F922F938F939F93EF93D9
:10075000FF93E0919F04F091A0048081E091A504B3
:10076000F091A60482FD1DC090818091A8048F5F46
:100770008F732091A904821741F0E091A804F0E062
:10078000E157FB4F958F8093A804FF91EF919F91C4
:100790008F912F910F900BBE0F900FBE0F901F9057
:1007A00018958081F2CF1F920F920FB60F921124ED
:1007B0002F933F938F939F93AF93BF938091730435
:1007C00090917404A0917504B091760430917204F4
:1007D00023E0230F2D3758F50196A11DB11D20935D
:1007E00072048093730490937404A0937504B0937F
:1007F00076048091770490917804A0917904B09167
:100800007A040196A11DB11D80937704909378041A
:10081000A0937904B0937A04BF91AF919F918F9187
:100820003F912F910F900FBE0F901F90189526E8C3
:10083000230F0296A11DB11DD2CFCF93DF93CDB769
:10084000DEB7A3970FB6F894DEBF0FBECDBF789486
:1008500084B5826084BD84B5816084BD85B58260C5
:1008600085BD85B5816085BD80916E008160809376
:100870006E001092810080918100826080938100DF
:1008800080918100816080938100809180008160EF
:10089000809380008091B10084608093B10080914A
:1008A000B00081608093B00080919100826080935D
:1008B00091008091910081608093910080919000DF
:1008C0008160809390008091A10082608093A1005C
:1008D0008091A10081608093A1008091A00081603F
:1008E0008093A000809121018260809321018091FA
:1008F000210181608093210180912001816080939A
:10090000200180917A00846080937A0080917A003F
:10091000826080937A0080917A00816080937A006F
:1009200080917A00806880937A001092C100E091F3
:100930009F04F091A00482E08083E0919B04F091F9
:100940009C041082E0919D04F0919E0410E11083BC
:100950001092A704E091A304F091A40486E08083A0
:10096000E091A104F091A204808180618083E091F4
:10097000A104F091A204808188608083E091A104A9
:10098000F091A204808180688083E091A104F091BD
:10099000A20480818F7D80838FE292E099DE89E4DA
:1009A00092E096DE86E592E093DE86E692E090DEC7
:1009B00086E792E08DDE86E892E08ADE86E992E0C4
:1009C00087DE86EA92E084DE8DEA92E081DE8CEBBF
:1009D00092E07EDE8EE292E07BDE85ED92E078DED4
:1009E00081EE92E075DE81EF92E072DE8EE292E0BF
:1009F0006FDE82E093E06CDE89E193E069DE89E6F8
:100A000093E066DE8AEB93E063DE8BE094E060DEE9
:100A10008EE292E05DDE81E394E05ADE60911E0298
:100A2000D0901F0280912002C09021027D2D9C2D2C
:100A300021DE60911A02B0901B0280911C02A090EE
:100A40001D027B2D9A2D16DE6091160290901702E2
:100A50008091180280901902792D982D0BDE6091FB
:100A60001202709013028091140260901502772D8B
:100A7000962D00DE60911E0270911F02809120026F
:100A800090912102F7DD61E086E244DD61E088E3D8
:100A900041DD61E08EE33EDD61E08EE13BDD61E062
:100AA00086E238DD10938B0480918D04882341F118
:100AB00080917B048130D1F4E0907D0400917E042C
:100AC00010917F04F090800480917C04DFDDFC01B4
:100AD000E082102701270183F282138266E08FE80B
:100AE00094E067DC6AE08FE894E063DCEBE7F4E035
:100AF00020E111922A95E9F710928C0410928D044E
:100B000042E2E42E42E0F42E87E494E0D5DD81E574
:100B100094E0D2DDF701019111917F011801110FCD
:100B20004408550819A2CE018196B201A1014F7067
:100B300055276627772734E05694479437942794AF
:100B40003A95D1F74A300CF059C0405DFC01429310
:100B5000CF01211431044104510439F7EF2B09F07E
:100B6000ABDD8CE292E0A8DD033009F454C008F05C
:100B700047C0013009F449C0023009F44AC0802F4F
:100B800085DD8C01FC0181818823F9F093818281CC
:100B90008917D8F4138284E594E09ADD61E08AA194
:100BA000B9DCFBA18F2F90E08230910538F0880FDF
:100BB000991F880F991F05970197F1F760E08AA1A7
:100BC000A9DCF801818181508183F80183818F5FE5
:100BD0008383FCE2EF16F2E0FF0609F095CF25DDF6
:100BE0001B012C0122DD6219730984099509683EF5
:100BF000734081059105B0F362DC56CF495CA6CF06
:100C0000063008F0BCCFC30101C0C6019AA38BA374
:100C1000B6CFC501FBCFC401F9CFEFE8F4E01382F2
:100C2000128288EE93E0A0E0B0E084839583A683EF
:100C3000B78384E092E09183808385EC90E0958790
:100C4000848784EC90E09787868780EC90E0918B96
:100C5000808B81EC90E0938B828B82EC90E0958B83
:100C6000848B86EC90E0978B868B118E128E138E80
:100C7000148E0895EE0FFF1F881F8BBF0790F6910B
:080C8000E02D1994F894FFCF58
:100C880000000000D901440171012502A201800180
:100C9800940122241EC8302E3EC83D3C38C8373641
:100CA80026C8010002000300040005000D0A0052D6
:100CB800414D507320312E34207374657070657205
:100CC800206472697665722E0020204D4F544F5271
:100CD8005F4E554D3A00202020202020582020200B
:100CE80020203D20300020202020202059202020B6
:100CF80020203D2031002020202020205A202020A4
:100D080020203D2032002020202020204531202096
:100D180020203D2033002020202020204532202084
:100D280020203D203400202020202020002020509A
:100D380041434B45545F54595045530020202020CF
:100D4800202030783031203D206D6F746F725F77CE
:100D580072697465002020444952454354494F4EF6
:100D68000020202020202030783030203D2043579C
:100D78000020202020202030783031203D2043439F
:100D8800570020204D4F544F52204D4F564520506C
:100D9800524F544F434F4C3A00202020202020200F
:100DA800202020202020202020202020202020203B
:100DB800302020202020202020202020202020201B
:100DC80031202020202032202020202033202020E5
:100DD80020202020203420202020202020352020E2
:100DE80020202020202020360020204D4F544F5214
:100DF8005F5041434B4554203D205041434B45549F
:100E08005F545950455F43484152204D4F544F520B
:100E18005F4E554D204449522053544550535F313D
:100E28002053544550535F32204D494C4C495F4242
:100E380045545745454E205C6E0020204D4F544F79
:100E4800525F5041434B4554203D202020203031F3
:100E5800202020202020202020202020202020208A
:100E68003031202020203030202020203033202016
:100E78002020204538202020202020202030352008
:100E8800202020202020202030410020204D4F54B9
:100E98004F525F5041434B4554203D202020203085
:100EA80078203031303130303033453830353041CA
:100EB80000202048414C54202020202020202020A1
:100EC8003D2030783046004D6F746F7220233A20F1
:100ED8000030780057726F7465206D6F746F720000
:00000001FF
