:10000000F5C0000021C100001FC100001DC100009B
:100010001BC1000019C1000017C1000015C100007C
:1000200013C1000011C100000FC100000DC100008C
:100030000BC1000009C1000007C1000005C100009C
:1000400003C1000001C10000FFC00000FDC00000AE
:10005000FBC00000F9C00000F7C00000FEC30000B4
:10006000F3C00000C4C3000099C30000EDC000004D
:10007000EBC00000E9C00000E7C00000E5C00000E0
:10008000E3C00000E1C00000DFC00000DDC00000F0
:10009000DBC00000D9C00000D7C00000D5C0000000
:1000A000D3C00000D1C00000CFC00000CDC0000010
:1000B000CBC00000C9C00000C7C00000C5C0000020
:1000C000C3C00000C1C00000BFC00000BDC0000030
:1000D000BBC00000B9C00000B7C00000B5C0000040
:1000E000B3C0000000000A0B02090C0D0E08070344
:1000F00004010000000000000000000000000000FB
:1001000000000000000000000000000000000000EF
:1001100012111000000000000000000000000000AC
:100120000000000000000000000000002200250088
:1001300028002B002E0031003400020100000501D0
:1001400008010B0100002100240027002A002D00D7
:100150003000330001010000040107010A01050518
:100160000505070508080808020202020A0A08082D
:10017000040404040101010101010101030303035B
:1001800003030303040707070C0C0C0C0C0C0C0CEA
:100190000202020206060606060606060B0B0B0BFB
:1001A0000B0B0B0B01021020200808102040102020
:1001B000408002010201080402010102040810202B
:1001C0004080804020100804020180040201804029
:1001D0002010080402010804020101020408102092
:1001E000408001020408102040800D0711241FBE2A
:1001F000CFEFD1E2DEBFCDBF00E00CBF13E0A0E047
:10020000B2E0ECECFEE000E00BBF02C007900D9204
:10021000A43DB107D9F724E0A4EDB3E001C01D92DD
:10022000A53DB207E1F710E0C6EFD0E000E005C061
:1002300021970109802FFE013FD6C53FD10780E0FD
:100240000807B1F754D340C6DBCE90E0FC01EC5573
:10025000FE4F2491825A9E4FFC018491882399F08D
:1002600090E0880F991FFC01EC5BFE4FA591B491C3
:10027000FC01E65DFE4F859194918FB7F894EC9167
:10028000E22BEC938FBF0895AF92BF92CF92DF9293
:10029000EF92FF920F931F93CF93DF936C017B013B
:1002A0008B01040F151FEB015E01AE18BF08C017CC
:1002B000D10759F06991D601ED91FC910190F0813F
:1002C000E02DC6011995892B79F7C501DF91CF91F2
:1002D0001F910F91FF90EF90DF90CF90BF90AF9064
:1002E0000895FC01538D448D252F30E0842F90E03C
:1002F000821B930B541710F0CF9608950197089521
:10030000FC01918D828D981761F0A28DAE0FBF2FE9
:10031000B11D5D968C91928D9F5F9F73928F90E03F
:1003200008958FEF9FEF0895FC01918D828D9817AE
:1003300031F0828DE80FF11D858D90E008958FEFEB
:100340009FEF0895FC01918D228D892F90E0805CB4
:100350009F4F821B91098F739927089588E394E03A
:10036000F1DF21E0892B09F420E0822F0895FC01C0
:10037000A48DA80FB92FB11DA35ABF4F2C91848D06
:1003800090E001968F739927848FA689B7892C9363
:10039000A089B1898C91837080648C93938D848DB6
:1003A000981306C00288F389E02D80818F7D8083B9
:1003B0000895EF92FF920F931F93CF93DF93EC0179
:1003C00081E0888F9B8D8C8D98131AC0E889F989FC
:1003D000808185FF15C09FB7F894EE89FF896083FF
:1003E000E889F98980818370806480839FBF81E080
:1003F00090E0DF91CF911F910F91FF90EF900895C2
:10040000F62E0B8D10E00F5F1F4F0F731127E02E9C
:100410008C8D8E110BC00FB607FCFACFE889F989D5
:10042000808185FFF5CFCE01A2DFF2CFEB8DEC0FFF
:10043000FD2FF11DE35AFF4FF0829FB7F8940B8F09
:10044000EA89FB8980818062D0CFCF93DF93EC0172
:10045000888D8823B1F0AA89BB89E889F9898C91B4
:1004600085FD03C0808186FD0CC00FB607FCF7CF69
:100470008C9185FFF2CF808185FFEDCFCE0177DFB4
:10048000EACFDF91CF910895CF93C1E088E394E064
:1004900059DF892BA9F088E394E032DF843019F426
:1004A000C0933604F3CF90913504E92FF0E0E55E78
:1004B000FB4F8695869580839F5F90933504E6CFAA
:1004C000CF9108954BDF8111DFDF80E090E0892B31
:1004D00049F080E090E0892B29F00E940000811112
:1004E0000E94000080E090E0892B49F080E090E0DD
:1004F000892B29F00E94000081110E94000080E0F9
:1005000090E0892B49F080E090E0892B29F00E944F
:10051000000081110C9400000895282F30E0F901AB
:10052000EC51FF4F9491F901EC55FE4F4491225A42
:100530003E4FF9012491222309F434C0992309F193
:1005400091509231F0F4E92FF0E08827E655FD4F05
:100550008F4FB2C4DB02DF02BC02D302D702C1025A
:10056000E202E802EC02F202F602FA0200030403DD
:10057000C10208030E031203809180008F778093DD
:100580008000E22FF0E0EE0FFF1FE65DFE4FA59129
:10059000B4918FB7F894EC91611148C040954E2307
:1005A0004C938FBF0895809180008F7DE8CF80911C
:1005B0008000877FE4CF84B58F7784BDE2CF84B598
:1005C0008F7DFBCF8091B0008F778093B000D9CF23
:1005D0008091B0008F7DF9CF809190008F778093CC
:1005E0009000CFCF809190008F7DF9CF80919000C7
:1005F000877FF5CF8091A0008F778093A000C1CF37
:100600008091A0008F7DF9CF8091A000877FF5CFEA
:10061000809120018F7780932001B3CF80912001BA
:100620008F7DF9CF80912001877FF5CF4E2BB8CFFA
:100630003FB7F8948091170490911804A091190481
:10064000B0911A0426B5A89B05C02F3F19F001965A
:10065000A11DB11D3FBFBA2FA92F982F8827BC011C
:10066000CD01620F711D811D911D42E0660F771F44
:10067000881F991F4A95D1F7089566E088E394E0B2
:1006800098DE64E088E394E094CECF93DF93D72F95
:10069000C82F862FDADD8D2FD8DD8C2FDF91CF91FB
:1006A000D4CDFC0101900020E9F73197AF01481B40
:1006B000590BBC0188E394E0E7CD8F929F92AF92F3
:1006C000BF920F931F93CF93DF93CDB7DEB7A19760
:1006D0000FB6F894DEBF0FBECDBF19A2423008F4AA
:1006E0004AE08E010F5D1F4F842E912CB12CA12C5E
:1006F000A5019401BFD3E62FB901CA01EA30ECF499
:10070000E05DD801EE938D01232B242B252B81F75F
:1007100090E080E0109711F0CD01C3DFA1960FB6F5
:10072000F894DEBF0FBECDBFDF91CF911F910F9127
:10073000BF90AF909F908F900895E95CE2CFCF93E8
:10074000DF93AFDFEC018CE292E0ABDF8C0F9D1FFB
:10075000DF91CF910895CF93DF938230E1F040F4A1
:100760008823B1F0813059F08FE292E0E8DF09C0D0
:10077000833059F08430C1F7C6EDD3E002C0CAEF30
:10078000D3E0CE01DF91CF910895C2EED3E0F9CF4F
:10079000C6E0D4E0F6CFCEEED3E0F3CF1F920F92B7
:1007A0000FB60F9211240BB60F922F933F934F93D6
:1007B0005F936F937F938F939F93AF93BF93EF93C9
:1007C000FF9388E394E0D3DDFF91EF91BF91AF9168
:1007D0009F918F917F916F915F914F913F912F9159
:1007E0000F900BBE0F900FBE0F901F9018951F9289
:1007F0000F920FB60F9211240BB60F922F938F9377
:100800009F93EF93FF93E0914804F0914904808116
:10081000E0914E04F0914F0482FD1DC090818091C3
:1008200051048F5F8F7320915204821741F0E09141
:100830005104F0E0E85CFB4F958F80935104FF91E9
:10084000EF919F918F912F910F900BBE0F900FBE44
:100850000F901F9018958081F2CF1F920F920FB6C4
:100860000F9211242F933F938F939F93AF93BF9336
:100870008091130490911404A0911504B091160472
:100880003091120423E0230F2D3758F50196A11D56
:10089000B11D209312048093130490931404A09329
:1008A0001504B09316048091170490911804A09138
:1008B0001904B0911A040196A11DB11D809317046B
:1008C00090931804A0931904B0931A04BF91AF91A8
:1008D0009F918F913F912F910F900FBE0F901F907E
:1008E000189526E8230F0296A11DB11DD2CFCF93F4
:1008F000DF9300D000D000D01F921F92CDB7DEB79B
:10090000789484B5826084BD84B5816084BD85B5EA
:10091000826085BD85B5816085BD80916E008160F6
:1009200080936E001092810080918100826080939C
:10093000810080918100816080938100809180009E
:100940008160809380008091B10084608093B100C9
:100950008091B00081608093B000809191008260AE
:1009600080939100809191008160809391008091AB
:1009700090008160809390008091A10082608093BC
:10098000A1008091A10081608093A1008091A000CE
:1009900081608093A0008091210182608093210179
:1009A00080912101816080932101809120018160EB
:1009B0008093200180917A00846080937A008091F6
:1009C0007A00826080937A0080917A0081608093BF
:1009D0007A0080917A00806880937A001092C1003A
:1009E000E0914804F091490482E08083E09144045E
:1009F000F09145041082E0914604F091470480E1B3
:100A0000808310925004E0914C04F0914D0486E0F4
:100A10008083E0914A04F0914B048081806180835F
:100A2000E0914A04F0914B04808188608083E091DA
:100A30004A04F0914B04808180688083E0914A04ED
:100A4000F0914B0480818F7D808385E492E077DE96
:100A50008FE592E074DE88E692E071DE8CE992E048
:100A60006EDE85EF92E06BDE89E193E068DE8EE377
:100A700093E065DE87E693E062DE60911E0270918E
:100A80001F028091200290912102FFDD60911A02E5
:100A900070911B0280911C0290911D02F6DD609105
:100AA0001602709117028091180290911902EDDDE3
:100AB00060911202709113028091140290911502BC
:100AC000E4DD60911E0270911F02809120029091DE
:100AD0002102DBDD61E086E220DD61E088E31DDDEF
:100AE00061E08EE31ADD61E08EE117DD61E086E210
:100AF00014DD89E180933404209116022A83309119
:100B000017023B83409118024C83509119025D8378
:100B1000809112028E83909113029F83A091140200
:100B2000A887B0911502B98780901E0290901F028D
:100B3000E0902002B0902102A0901A028091360429
:100B4000882309F481C080911B04813009F071C0B1
:100B5000E0911E0440E4E49F9001112480911F0461
:100B6000282B3B872A87232B09F462C030901C0472
:100B700020901D042091200488EE93E0289FB0016E
:100B8000299F700D1124603D37E0730714F460ED68
:100B900077E02B01770F66087708832DDCDD6C0189
:100BA00080E993E07EDD632D70E090E080E04AE034
:100BB00084DD8CE292E075DD8FE993E072DD622DD9
:100BC00070E090E080E04AE078DD8CE292E069DD60
:100BD0008AEA93E066DD4A855B85BA01550F880B8A
:100BE000990B4AE06ADD8CE292E05BDD81EB93E0F9
:100BF00058DD4AE0C301B20160DD8CE292E051DDD4
:100C0000D6012C92EA85FB851296FC93EE93119700
:100C100013964D925D926D927C92169709DD460E69
:100C2000571E681E791EF6014782508661867286BD
:100C300024DDEBE1F4E089E1DF011D928A95E9F71B
:100C40001092350410923604F3DC2B013C0132E2A1
:100C5000C32E32E0D32EF6018081F2E0CF0ED11CFC
:100C6000823009F45BC008F043C0882309F448C00F
:100C7000813009F44BC06FDD9B878A87DC011196B8
:100C80008D919C911297892B09F49DC017968D9197
:100C90009D910D90BC91A02D892B8A2B8B2B89F4D3
:100CA000C7DCEA85FB852381348145815681DC01DF
:100CB000CB01820F931FA41FB51F87839087A18745
:100CC000B287AA85BB851B968C91811107C060E015
:100CD000812F23DC81E0EA85FB858387AA85BB859C
:100CE0008C91882301F1813009F495C0C6DC1EC0C7
:100CF000853008F0C0CF0E81FF801885998504C02B
:100D0000082DF92C1E2D9B2D9983B5CF0A2DF0901F
:100D10001B0210911C0290911D02F6CF0A81FB80EC
:100D20001C819D81F1CF61E0802FF7DBEA85FB8597
:100D300087819085A185B285A3019201281B390B7B
:100D40004A0B5B0BDA01C9014381548165817681CD
:100D500084179507A607B70778F561E08F2DDDDBCF
:100D60003981832F90E08230910538F0880F991FE8
:100D7000880F991F05970197F1F760E08F2DCDDB64
:100D8000AA85BB8511968D919C9112970197129619
:100D90009C938E931197FD0187819085A185B285E3
:100DA0004381548165817681840F951FA61FB71FEB
:100DB00087839087A187B287AA85BB8511968D917D
:100DC0009C91892B01F5EA85FB8583858823D9F0E1
:100DD00084EC93E0B4DC61E0812F9FDBAA85BB85C6
:100DE0001B961C921B971C9212961C921E92119796
:100DF000FD01138214821582168217961D921D9290
:100E00001D921C921A97BCE2CB16B2E0DB0609F0E9
:100E100022CF58DB93CE60E087CFE8E3F4E0138283
:100E2000128288EE93E0A0E0B0E084839583A683ED
:100E3000B78384E092E09183808385EC90E095878E
:100E4000848784EC90E09787868780EC90E0918B94
:100E5000808B81EC90E0938B828B82EC90E0958B81
:100E6000848B86EC90E0978B868B118E128E138E7E
:100E7000148E0895A1E21A2EAA1BBB1BFD010DC002
:100E8000AA1FBB1FEE1FFF1FA217B307E407F5073A
:100E900020F0A21BB30BE40BF50B661F771F881F16
:100EA000991F1A9469F760957095809590959B01AC
:100EB000AC01BD01CF010895EE0FFF1F881F8BBF4E
:0C0EC0000790F691E02D1994F894FFCFF4
:100ECC0000000000D901440171012502A20180013A
:100EDC00940122241EC8302E3EC83D3C38C83736FB
:100EEC0026C8000001000200030004000D0A004E99
:100EFC006F206D6F746F7220737461746520666FF0
:100F0C00756E642E0052414D507320312E34207377
:100F1C00746570706572206472697665722E005704
:100F2C00656C636F6D65210050726F746F636F6CCD
:100F3C0020726573657276657320666972737420AE
:100F4C0074776F206269747320666F7220666C6FA1
:100F5C007720636F6E74726F6C2E20005061636B20
:100F6C0065743A204D4F544F525F5041434B45549A
:100F7C00203D205041434B45545F545950455F43ED
:100F8C00484152204D4F544F525F4E554D204449CD
:100F9C00522053544550535F312053544550535FA6
:100FAC0032204D494C4C495F4245545745454E20E3
:100FBC003078303400456E636F64653A2056414C8E
:100FCC005545203D202856414C5545203C3C20326F
:100FDC0029207C2030783033004465636F64653A97
:100FEC002056414C5545203D202856414C55452016
:100FFC003E3E20322920267E20307843300050722D
:10100C00652D656E636F6465642076616C75652013
:10101C003A203031203030203031203346203346D6
:10102C0020303520303400506F73742D656E636F33
:10103C006465642076616C75653A203037203033F6
:10104C0020303720464620464620313720303400A9
:10105C004D6F746F72206E756D6265722023006423
:10106C006972656374696F6E3A0073746570733A74
:10107C00006D6963726F5365636F6E647344656C66
:10108C0061793A0044697361626C6564206D6F74B8
:04109C006F7200006F
:00000001FF
