:10000000F5C0000021C100001FC100001DC100009B
:100010001BC1000019C1000017C1000015C100007C
:1000200013C1000011C100000FC100000DC100008C
:100030000BC1000009C1000007C1000005C100009C
:1000400003C1000001C10000FFC00000FDC00000AE
:10005000FBC00000F9C00000F7C000008FC3000023
:10006000F3C0000055C300002AC30000EDC000002B
:10007000EBC00000E9C00000E7C00000E5C00000E0
:10008000E3C00000E1C00000DFC00000DDC00000F0
:10009000DBC00000D9C00000D7C00000D5C0000000
:1000A000D3C00000D1C00000CFC00000CDC0000010
:1000B000CBC00000C9C00000C7C00000C5C0000020
:1000C000C3C00000C1C00000BFC00000BDC0000030
:1000D000BBC00000B9C00000B7C00000B5C0000040
:1000E000B3C0000000000A0B02090C0D0E08070344
:1000F00004010000000000000000000000000000FB
:1001000000000000000000000000000000000000EF
:1001100012111000000000000000000000000000AC
:100120000000000000000000000000002200250088
:1001300028002B002E0031003400020100000501D0
:1001400008010B0100002100240027002A002D00D7
:100150003000330001010000040107010A01050518
:100160000505070508080808020202020A0A08082D
:10017000040404040101010101010101030303035B
:1001800003030303040707070C0C0C0C0C0C0C0CEA
:100190000202020206060606060606060B0B0B0BFB
:1001A0000B0B0B0B01021020200808102040102020
:1001B000408002010201080402010102040810202B
:1001C0004080804020100804020180040201804029
:1001D0002010080402010804020101020408102092
:1001E000408001020408102040807C0511241FBEBD
:1001F000CFEFD1E2DEBFCDBF00E00CBF14E0A0E046
:10020000B2E0E6E6FBE000E00BBF02C007900D9213
:10021000AE32B107D9F724E0AEE2B4E001C01D92DE
:10022000AA3EB207E1F710E0C6EFD0E000E005C05B
:1002300021970109802FFE018CD4C53FD10780E0B2
:100240000807B1F7E5D28DC4DBCE90E0FC01EC5598
:10025000FE4F2491825A9E4FFC018491882399F08D
:1002600090E0880F991FFC01EC5BFE4FA591B491C3
:10027000FC01E65DFE4F859194918FB7F894EC9167
:10028000E22BEC938FBF0895AF92BF92CF92DF9293
:10029000EF92FF920F931F93CF93DF936C017B013B
:1002A0008B01040F151FEB015E01AE18BF08C017CC
:1002B000D10759F06991D601ED91FC910190F0813F
:1002C000E02DC6011995892B79F7C501DF91CF91F2
:1002D0001F910F91FF90EF90DF90CF90BF90AF9064
:1002E0000895FC01538D448D252F30E0842F90E03C
:1002F000821B930B541710F0CF9608950197089521
:10030000FC01918D828D981761F0A28DAE0FBF2FE9
:10031000B11D5D968C91928D9F5F9F73928F90E03F
:1003200008958FEF9FEF0895FC01918D828D9817AE
:1003300031F0828DE80FF11D858D90E008958FEFEB
:100340009FEF0895FC01918D228D892F90E0805CB4
:100350009F4F821B91098F73992708958DE494E034
:10036000F1DF21E0892B09F420E0822F0895FC01C0
:10037000A48DA80FB92FB11DA35ABF4F2C91848D06
:1003800090E001968F739927848FA689B7892C9363
:10039000A089B1898C91837080648C93938D848DB6
:1003A000981306C00288F389E02D80818F7D8083B9
:1003B0000895EF92FF920F931F93CF93DF93EC0179
:1003C00081E0888F9B8D8C8D98131AC0E889F989FC
:1003D000808185FF15C09FB7F894EE89FF896083FF
:1003E000E889F98980818370806480839FBF81E080
:1003F00090E0DF91CF911F910F91FF90EF900895C2
:10040000F62E0B8D10E00F5F1F4F0F731127E02E9C
:100410008C8D8E110BC00FB607FCFACFE889F989D5
:10042000808185FFF5CFCE01A2DFF2CFEB8DEC0FFF
:10043000FD2FF11DE35AFF4FF0829FB7F8940B8F09
:10044000EA89FB8980818062D0CF682F8DE494E0B7
:10045000B0CFCF93DF93EC01888D8823B1F0AA89C8
:10046000BB89E889F9898C9185FD03C0808186FD6F
:100470000CC00FB607FCF7CF8C9185FFF2CF8081BF
:1004800085FFEDCFCE0173DFEACFDF91CF910895E5
:10049000CF93C1E08DE494E055DF892B91F08DE49A
:1004A00094E02EDF90914A04E92FF0E0E75CFB4FE7
:1004B00080839F5F90934A048A3061F7C0934B0416
:1004C000E9CFCF9108954ADF8111E2DF80E090E02B
:1004D000892B49F080E090E0892B29F00E940000F0
:1004E00081110E94000080E090E0892B49F080E0BB
:1004F00090E0892B29F00E94000081110E940000E9
:1005000080E090E0892B49F080E090E0892B29F091
:100510000E94000081110C9400000895282F30E003
:10052000F901EC51FF4F9491F901EC55FE4F4491C4
:10053000225A3E4FF9012491222309F434C0992311
:1005400009F191509231F0F4E92FF0E08827E55558
:10055000FD4F8F4FFEC2DC02E002BD02D402D80282
:10056000C202E302E902ED02F302F702FB02010319
:100570000503C20209030F031303809180008F77E4
:1005800080938000E22FF0E0EE0FFF1FE65DFE4F4C
:10059000A591B4918FB7F894EC91611148C0409542
:1005A0004E234C938FBF0895809180008F7DE8CFBC
:1005B00080918000877FE4CF84B58F7784BDE2CFC0
:1005C00084B58F7DFBCF8091B0008F778093B00092
:1005D000D9CF8091B0008F7DF9CF809190008F7737
:1005E00080939000CFCF809190008F7DF9CF809144
:1005F0009000877FF5CF8091A0008F778093A00037
:10060000C1CF8091A0008F7DF9CF8091A000877F1E
:10061000F5CF809120018F7780932001B3CF809117
:1006200020018F7DF9CF80912001877FF5CF4E2B60
:10063000B8CF3FB7F8948091350490913604A091DB
:100640003704B091380426B5A89B05C02F3F19F098
:100650000196A11DB11D3FBFBA2FA92F982F882742
:10066000BC01CD01620F711D811D911D42E0660F1D
:10067000771F881F991F4A95D1F7089586E090E06B
:10068000E4DE8AE090E0E1CECF93DF93FC010190BD
:100690000020E9F73197AF01481B590BBC018DE4ED
:1006A00094E0F2DDEC0142E050E062E172E08DE4C2
:1006B00094E0EADD8C0F9D1FDF91CF9108951F928A
:1006C0000F920FB60F9211240BB60F922F933F93F8
:1006D0004F935F936F937F938F939F93AF93BF934A
:1006E000EF93FF938DE494E042DEFF91EF91BF9191
:1006F000AF919F918F917F916F915F914F913F91BA
:100700002F910F900BBE0F900FBE0F901F9018955A
:100710001F920F920FB60F9211240BB60F922F93C8
:100720008F939F93EF93FF93E0915D04F0915E04AC
:100730008081E0916304F091640482FD1DC090818A
:10074000809166048F5F8F7320916704821741F058
:10075000E0916604F0E0E35BFB4F958F80936604C5
:10076000FF91EF919F918F912F910F900BBE0F9062
:100770000FBE0F901F9018958081F2CF1F920F929D
:100780000FB60F9211242F933F938F939F93AF93A4
:10079000BF938091310490913204A0913304B091C1
:1007A00034043091300423E0230F2D3758F501969F
:1007B000A11DB11D20933004809331049093320425
:1007C000A0933304B093340480913504909136049F
:1007D000A0913704B09138040196A11DB11D8093FA
:1007E000350490933604A0933704B0933804BF9136
:1007F000AF919F918F913F912F910F900FBE0F90CE
:100800001F90189526E8230F0296A11DB11DD2CF87
:10081000789484B5826084BD84B5816084BD85B5DB
:10082000826085BD85B5816085BD80916E008160E7
:1008300080936E001092810080918100826080938D
:10084000810080918100816080938100809180008F
:100850008160809380008091B10084608093B100BA
:100860008091B00081608093B0008091910082609F
:10087000809391008091910081608093910080919C
:1008800090008160809390008091A10082608093AD
:10089000A1008091A10081608093A1008091A000BF
:1008A00081608093A000809121018260809321016A
:1008B00080912101816080932101809120018160DC
:1008C0008093200180917A00846080937A008091E7
:1008D0007A00826080937A0080917A0081608093B0
:1008E0007A0080917A00806880937A001092C1002B
:1008F000E0915D04F0915E0482E08083E091590410
:10090000F0915A041082E0915B04F0915C04C0E124
:10091000C08310926504E0916104F091620486E066
:100920008083E0915F04F091600480818061808326
:10093000E0915F04F0916004808188608083E091A1
:100940005F04F0916004808180688083E0915F049F
:10095000F091600480818F7D808385E192E094DE58
:100960008FE292E091DE8CE392E08EDE8CE492E006
:100970008BDE8CE592E088DE8CE692E085DE8CE70B
:1009800092E082DE8CE892E07FDE83E992E07CDE1A
:1009900082EA92E079DE84E192E076DE8BEB92E00F
:1009A00073DE87EC92E070DE87ED92E06DDE84E12D
:1009B00092E06ADE88EE92E067DE8FEF92E064DE1E
:1009C0008FE493E061DE80EA93E05EDE81EF93E006
:1009D0005BDE84E192E058DE87E194E055DE87E358
:1009E00034DC86E332DC86E230DCC093490461E02B
:1009F00086E294DD89E3882E84E0982E90E1392EFA
:100A00002BE1A22E23E0B22E80914B04882309F122
:100A100080913904813099F4C0913B0400913C04E9
:100A200010913D0410270127102720903E0426DE58
:100A300060E086E273DDCC2371F0C13049F11EDE47
:100A4000F401232D11922A95E9F710924A0410928D
:100A50004B0439DDD9CF61E087E360DDD0E0C0E051
:100A60000C171D0759F08DE494E06CDC892B91F094
:100A70008DE494E045DC8F3069F400DE61E086E2CD
:100A80004DDD87E090E0E1DC8AE090E0DEDCD8CF6D
:100A900060E0E2CF61E086E341DDC5010197F1F757
:100AA00060E086E33BDDC22CD12CF12CE12CC1DDD2
:100AB0002B013C01C114D104E104F10491F421960D
:100AC000CFCF21E0C21AD108E108F10888EE480E24
:100AD00083E0581E611C711CC114D104E104F104AF
:100AE00049F3A7DD6419750986099709683E7340C3
:100AF0008105910530F7DECFEDE4F4E01382128238
:100B000088EE93E0A0E0B0E084839583A683B7836A
:100B100084E092E09183808385EC90E095878487E0
:100B200084EC90E09787868780EC90E0918B808BB7
:100B300081EC90E0938B828B82EC90E0958B848BA0
:100B400086EC90E0978B868B118E128E138E148E0E
:100B50000895EE0FFF1F881F8BBF0790F691E02DC1
:060B60001994F894FFCF88
:100B660000000000D901440171012902A20180019F
:100B760094010D0A0052414D507320312E342073DA
:100B8600746570706572206472697665722E0020D5
:100B9600204D4F544F525F4E554D3A002020202095
:100BA60020205820202020203D20300020202020FA
:100BB60020205920202020203D20310020202020E8
:100BC60020205A20202020203D20320020202020D6
:100BD60020204531202020203D20330020202020C9
:100BE60020204532202020203D20340020202020B7
:100BF60020200020205041434B45545F5459504516
:100C0600530020202020202030783031203D206DD8
:100C16006F746F725F777269746500202044495261
:100C2600454354494F4E0020202020202030783064
:100C360030203D20435700202020202020307830CF
:100C460031203D204343570020204D4F544F522022
:100C56004D4F56452050524F544F434F4C3A00206B
:100C6600202020202020202020202020202020207E
:100C7600202020202020302020202020202020205E
:100C8600202020202020312020202020322020203B
:100C96002020332020202020202020342020202027
:100CA6002020203520202020202020202036002033
:100CB600204D4F544F525F5041434B4554203D20E9
:100CC6005041434B45545F545950455F4348415248
:100CD600204D4F544F525F4E554D2044495220539C
:100CE600544550535F312053544550535F32204D85
:100CF600494C4C495F4245545745454E205C6E0071
:100D060020204D4F544F525F5041434B4554203D98
:100D160020202020303120202020202020202020AC
:100D2600202020202020303120202020303020207C
:100D3600202030332020202020453820202020204D
:100D46002020203035202020202020202020304147
:100D56000020204D4F544F525F5041434B45542085
:100D66003D20202020307820303130313030303373
:100D760045383035304100202048414C5420202051
:0E0D86002020202020203D2030783046000024
:00000001FF
