:10000000F5C0000021C100001FC100001DC100009B
:100010001BC1000019C1000017C1000015C100007C
:1000200013C1000011C100000FC100000DC100008C
:100030000BC1000009C1000007C1000005C100009C
:1000400003C1000001C10000FFC00000FDC00000AE
:10005000FBC00000F9C00000F7C00000BCC30000F6
:10006000F3C0000082C3000057C30000EDC00000D1
:10007000EBC00000E9C00000E7C00000E5C00000E0
:10008000E3C00000E1C00000DFC00000DDC00000F0
:10009000DBC00000D9C00000D7C00000D5C0000000
:1000A000D3C00000D1C00000CFC00000CDC0000010
:1000B000CBC00000C9C00000C7C00000C5C0000020
:1000C000C3C00000C1C00000BFC00000BDC0000030
:1000D000BBC00000B9C00000B7C00000B5C0000040
:1000E000B3C0000000000A0B02090C0D0E08070344
:1000F00004010000000000000000000000000000FB
:1001000000000000000000000000000000000000EF
:1001100012111000000000000000000000000000AC
:100120000000000000000000000000002200250088
:1001300028002B002E0031003400020100000501D0
:1001400008010B0100002100240027002A002D00D7
:100150003000330001010000040107010A01050518
:100160000505070508080808020202020A0A08082D
:10017000040404040101010101010101030303035B
:1001800003030303040707070C0C0C0C0C0C0C0CEA
:100190000202020206060606060606060B0B0B0BFB
:1001A0000B0B0B0B01021020200808102040102020
:1001B000408002010201080402010102040810202B
:1001C0004080804020100804020180040201804029
:1001D0002010080402010804020101020408102092
:1001E000408001020408102040807F0611241FBEB9
:1001F000CFEFD1E2DEBFCDBF00E00CBF12E0A0E048
:10020000B2E0EAEBFDE000E00BBF02C007900D9208
:10021000A837B107D9F723E0A8E7B2E001C01D92E3
:10022000A937B207E1F710E0C6EFD0E000E005C063
:1002300021970109802FFE01A2D5C53FD10780E09B
:100240000807B1F712D3B7C5DBCE90E0FC01EC553F
:10025000FE4F2491825A9E4FFC018491882399F08D
:1002600090E0880F991FFC01EC5BFE4FA591B491C3
:10027000FC01E65DFE4F859194918FB7F894EC9167
:10028000E22BEC938FBF0895AF92BF92CF92DF9293
:10029000EF92FF920F931F93CF93DF936C017B013B
:1002A0008B01040F151FEB015E01AE18BF08C017CC
:1002B000D10759F06991D601ED91FC910190F0813F
:1002C000E02DC6011995892B79F7C501DF91CF91F2
:1002D0001F910F91FF90EF90DF90CF90BF90AF9064
:1002E0000895FC01538D448D252F30E0842F90E03C
:1002F000821B930B541710F0CF9608950197089521
:10030000FC01918D828D981761F0A28DAE0FBF2FE9
:10031000B11D5D968C91928D9F5F9F73928F90E03F
:1003200008958FEF9FEF0895FC01918D828D9817AE
:1003300031F0828DE80FF11D858D90E008958FEFEB
:100340009FEF0895FC01918D228D892F90E0805CB4
:100350009F4F821B91098F73992708958CED92E02E
:10036000F1DF21E0892B09F420E0822F0895FC01C0
:10037000A48DA80FB92FB11DA35ABF4F2C91848D06
:1003800090E001968F739927848FA689B7892C9363
:10039000A089B1898C91837080648C93938D848DB6
:1003A000981306C00288F389E02D80818F7D8083B9
:1003B0000895EF92FF920F931F93CF93DF93EC0179
:1003C00081E0888F9B8D8C8D98131AC0E889F989FC
:1003D000808185FF15C09FB7F894EE89FF896083FF
:1003E000E889F98980818370806480839FBF81E080
:1003F00090E0DF91CF911F910F91FF90EF900895C2
:10040000F62E0B8D10E00F5F1F4F0F731127E02E9C
:100410008C8D8E110BC00FB607FCFACFE889F989D5
:10042000808185FFF5CFCE01A2DFF2CFEB8DEC0FFF
:10043000FD2FF11DE35AFF4FF0829FB7F8940B8F09
:10044000EA89FB8980818062D0CFCF93DF93EC0172
:10045000888D8823B1F0AA89BB89E889F9898C91B4
:1004600085FD03C0808186FD0CC00FB607FCF7CF69
:100470008C9185FFF2CF808185FFEDCFCE0177DFB4
:10048000EACFDF91CF910895CF93C1E08CED92E058
:1004900059DF892B91F08CED92E032DF9091D902F7
:1004A000E92FF0E0E154FD4F80839F5F9093D902E4
:1004B000993161F7C093DA02E9CFCF9108954EDF09
:1004C0008111E2DF80E090E0892B49F080E090E04C
:1004D000892B29F00E94000081110E94000080E019
:1004E00090E0892B49F080E090E0892B29F00E9470
:1004F000000081110E94000080E090E0892B49F00B
:1005000080E090E0892B29F00E94000081110C947A
:1005100000000895282F30E0F901EC51FF4F94912D
:10052000F901EC55FE4F4491225A3E4FF9012491B6
:10053000222309F434C0992309F191509231F0F447
:10054000E92FF0E08827E955FD4F8F4F18C4D802F6
:10055000DC02B902D002D402BE02DF02E502E902E7
:10056000EF02F302F702FD020103BE0205030B03D3
:100570000F03809180008F7780938000E22FF0E05E
:10058000EE0FFF1FE65DFE4FA591B4918FB7F89473
:10059000EC91611148C040954E234C938FBF089554
:1005A000809180008F7DE8CF80918000877FE4CFAD
:1005B00084B58F7784BDE2CF84B58F7DFBCF8091EA
:1005C000B0008F778093B000D9CF8091B0008F7D3D
:1005D000F9CF809190008F7780939000CFCF80915A
:1005E00090008F7DF9CF80919000877FF5CF80912B
:1005F000A0008F778093A000C1CF8091A0008F7D55
:10060000F9CF8091A000877FF5CF809120018F776F
:1006100080932001B3CF809120018F7DF9CF80910D
:100620002001877FF5CF4E2BB8CF3FB7F89480914C
:10063000BB029091BC02A091BD02B091BE0226B552
:10064000A89B05C02F3F19F00196A11DB11D3FBF0A
:10065000BA2FA92F982F8827BC01CD01620F711DD9
:10066000811D911D42E0660F771F881F991F4A95D3
:10067000D1F7089566E08CED92E09BDE6AE08CEDA8
:1006800092E097CECF93DF93D72FC82F862FDDDD53
:100690008D2FDBDD8C2FDF91CF91D7CDCF93DF93E3
:1006A000FC0101900020E9F73197AF01481B590B7D
:1006B000BC018CED92E0E8DDEC0142E050E06CE240
:1006C00072E08CED92E0E0DD8C0F9D1FDF91CF9109
:1006D0000895CF93DF938230E1F040F48823B1F0A6
:1006E000813059F08FE292E0D9DF09C0833059F0B0
:1006F0008430C1F7CAE7D2E002C0CEE9D2E0CE0131
:10070000DF91CF910895C6E8D2E0F9CFCAEAD2E0EE
:10071000F6CFC2E9D2E0F3CF1F920F920FB60F923D
:1007200011240BB60F922F933F934F935F936F93C8
:100730007F938F939F93AF93BF93EF93FF938CED32
:1007400092E015DEFF91EF91BF91AF919F918F9154
:100750007F916F915F914F913F912F910F900BBEC1
:100760000F900FBE0F901F9018951F920F920FB60B
:100770000F9211240BB60F922F938F939F93EF93A9
:10078000FF93E091EC02F091ED028081E091F202A2
:10079000F091F30282FD1DC090818091F5028F5F80
:1007A0008F732091F602821741F0E091F502F0E09C
:1007B000E452FD4F958F8093F502FF91EF919F9149
:1007C0008F912F910F900BBE0F900FBE0F901F9027
:1007D00018958081F2CF1F920F920FB60F921124BD
:1007E0002F933F938F939F93AF93BF938091B702C3
:1007F0009091B802A091B902B091BA023091B602BC
:1008000023E0230F2D3758F50196A11DB11D20932C
:10081000B6028093B7029093B802A093B902B09346
:10082000BA028091BB029091BC02A091BD02B0912E
:10083000BE020196A11DB11D8093BB029093BC0224
:10084000A093BD02B093BE02BF91AF919F918F91D3
:100850003F912F910F900FBE0F901F90189526E893
:10086000230F0296A11DB11DD2CFCF93DF93CDB739
:10087000DEB7A6970FB6F894DEBF0FBECDBF789453
:1008800084B5826084BD84B5816084BD85B5826095
:1008900085BD85B5816085BD80916E008160809346
:1008A0006E001092810080918100826080938100AF
:1008B00080918100816080938100809180008160BF
:1008C000809380008091B10084608093B10080911A
:1008D000B00081608093B00080919100826080932D
:1008E00091008091910081608093910080919000AF
:1008F0008160809390008091A10082608093A1002C
:100900008091A10081608093A1008091A00081600E
:100910008093A000809121018260809321018091C9
:100920002101816080932101809120018160809369
:10093000200180917A00846080937A0080917A000F
:10094000826080937A0080917A00816080937A003F
:1009500080917A00806880937A001092C100E091C3
:10096000EC02F091ED0282E08083E091E802F091E8
:10097000E9021082E091EA02F091EB0280E18083CB
:100980001092F402E091F002F091F10286E080838F
:10099000E091EE02F091EF02808180618083E0912E
:1009A000EE02F091EF02808188608083E091EE0298
:1009B000F091EF02808180688083E091EE02F091F7
:1009C000EF0280818F7D808385E492E067DE8FE592
:1009D00092E064DE60911E0270911F0280912002FD
:1009E000909121024FDE60911A0270911B0280915A
:1009F0001C0290911D0246DE609116027091170252
:100A000080911802909119023DDE6091120270915E
:100A10001302809114029091150234DE60911E023F
:100A200070911F0280912002909121022BDE61E0E3
:100A300086E270DD61E088E36DDD61E08EE36ADD12
:100A400061E08EE167DD61E086E264DD89E180934B
:100A5000D802209116022E8F309117023F8F4091BD
:100A6000180248A35091190259A3809112028AA337
:100A7000909113029BA3A0911402ACA3B091150214
:100A8000BDA38091DA02882309F450C08DE1EFEB19
:100A9000F2E0DE01119601900D928A95E1F78E0148
:100AA0000F5F1F4FD12CC12C8981813059F5F8017E
:100AB00082808381982C882E8114910411F15180B9
:100AC000C60165E070E048D1862F03DE5C01DC01E1
:100AD0005C9212969C928E92119720ED37E040E046
:100AE00050E013962D933D934D935C9316979DDDA7
:100AF0006053784F8F4F9F4FF501678370878187D1
:100B00009287B8DDF5E0CF0ED11C0B5F1F4F29E1B6
:100B1000C216D10449F6EFEBF2E089E1DF011D9244
:100B20008A95E9F71092D9021092DA027EDD4B0124
:100B30005C0132E2C32E32E0D32EB0911E02BEA37E
:100B400020901F02309020024090210250901A0203
:100B5000F6018081F2E0CF0ED11C823009F454C03E
:100B600008F03EC0882309F442C0813009F444C033
:100B7000B0DD8C01DC0111968D919C911297892B2F
:100B800009F495C017968D919D910D90BC91A02D63
:100B9000892B8A2B8B2B81F448DDF801238134814A
:100BA00045815681DC01CB01820F931FA41FB51F25
:100BB00087839087A187B287D8011B968C9181117A
:100BC00006C060E08F2DA6DC81E0F8018387D801A4
:100BD0008C918823F1F0813009F48FC04BDD1CC06B
:100BE000853030F6EAA07BA0FCA06DA0C1CFEEA0BE
:100BF000722CF32C642CBCCFE52C70901B02F0906F
:100C00001C0260901D02B4CFEE8C7F8CF8A069A00E
:100C1000AFCF61E08E2D7EDCF80187819085A185C4
:100C2000B285A5019401281B390B4A0B5B0BDA0135
:100C3000C901438154816581768184179507A60790
:100C4000B70778F561E0872D65DC862D90E082306E
:100C5000910538F0880F991F880F991F0597019704
:100C6000F1F760E0872D56DCD80111968D919C91AB
:100C70001297019712969C938E93119717968D91C8
:100C80009D910D90BC91A02DF80143815481658107
:100C90007681840F951FA61FB71F87839087A18732
:100CA000B287D80111968D919C91892BF1F4F801AE
:100CB00083858823D1F088E692E0F0DC61E08F2D17
:100CC00029DCD8011B961C921B971C9212961C9231
:100CD0001E921197F80113821482158216821796BC
:100CE0001D921D921D921C921A97ECE2F2E0EC15F7
:100CF000FD0509F02DCFE3DBC4CE60E08BCFECED3A
:100D0000F2E01382128288EE93E0A0E0B0E08483E8
:100D10009583A683B78384E092E09183808385ECFA
:100D200090E09587848784EC90E09787868780ECB5
:100D300090E0918B808B81EC90E0938B828B82ECA6
:100D400090E0958B848B86EC90E0978B868B118E50
:100D5000128E138E148E089597FB072E16F40094AE
:100D600006D077FD08D013D007FC05D03EF490954F
:100D700081959F4F0895709561957F4F0895EE0F6F
:100D8000FF1F881F8BBF0790F691E02D1994AA1BB7
:100D9000BB1B51E107C0AA1FBB1FA617B70710F066
:100DA000A61BB70B881F991F5A95A9F78095909598
:0A0DB000BC01CD010895F894FFCFB7
:100DBA0000000000D901440171012502A20180014D
:100DCA00940122241EC8302E3EC83D3C38C837360E
:100DDA0026C8000001000200030004000D0A004EAC
:100DEA006F206D6F746F7220737461746520666F03
:100DFA00756E642E0052414D507320312E3420738B
:100E0A00746570706572206472697665722E005717
:100E1A00656C636F6D65210044697361626C65641A
:080E2A00206D6F746F7200006F
:00000001FF
