:10000000F5C0000021C100001FC100001DC100009B
:100010001BC1000019C1000017C1000015C100007C
:1000200013C1000011C100000FC100000DC100008C
:100030000BC1000009C1000007C1000005C100009C
:1000400003C1000001C10000FFC00000FDC00000AE
:10005000FBC00000F9C00000F7C00000FBC30000B7
:10006000F3C00000C1C3000096C30000EDC0000053
:10007000EBC00000E9C00000E7C00000E5C00000E0
:10008000E3C00000E1C00000DFC00000DDC00000F0
:10009000DBC00000D9C00000D7C00000D5C0000000
:1000A000D3C00000D1C00000CFC00000CDC0000010
:1000B000CBC00000C9C00000C7C00000C5C0000020
:1000C000C3C00000C1C00000BFC00000BDC0000030
:1000D000BBC00000B9C00000B7C00000B5C0000040
:1000E000B3C0000000000A0B02090C0D0E08070344
:1000F00004010000000000000000000000000000FB
:1001000000000000000000000000000000000000EF
:1001100012111000000000000000000000000000AC
:100120000000000000000000000000002200250088
:1001300028002B002E0031003400020100000501D0
:1001400008010B0100002100240027002A002D00D7
:100150003000330001010000040107010A01050518
:100160000505070508080808020202020A0A08082D
:10017000040404040101010101010101030303035B
:1001800003030303040707070C0C0C0C0C0C0C0CEA
:100190000202020206060606060606060B0B0B0BFB
:1001A0000B0B0B0B01021020200808102040102020
:1001B000408002010201080402010102040810202B
:1001C0004080804020100804020180040201804029
:1001D0002010080402010804020101020408102092
:1001E00040800102040810204080010711241FBE36
:1001F000CFEFD1E2DEBFCDBF00E00CBF13E0A0E047
:10020000B2E0E4EBFEE000E00BBF02C007900D920D
:10021000A238B107D9F724E0A2E8B3E001C01D92EB
:10022000A338B207E1F710E0C6EFD0E000E005C068
:1002300021970109802FFE0133D6C53FD10780E009
:100240000807B1F751D334C6DBCE90E0FC01EC5582
:10025000FE4F2491825A9E4FFC018491882399F08D
:1002600090E0880F991FFC01EC5BFE4FA591B491C3
:10027000FC01E65DFE4F859194918FB7F894EC9167
:10028000E22BEC938FBF0895AF92BF92CF92DF9293
:10029000EF92FF920F931F93CF93DF936C017B013B
:1002A0008B01040F151FEB015E01AE18BF08C017CC
:1002B000D10759F06991D601ED91FC910190F0813F
:1002C000E02DC6011995892B79F7C501DF91CF91F2
:1002D0001F910F91FF90EF90DF90CF90BF90AF9064
:1002E0000895FC01538D448D252F30E0842F90E03C
:1002F000821B930B541710F0CF9608950197089521
:10030000FC01918D828D981761F0A28DAE0FBF2FE9
:10031000B11D5D968C91928D9F5F9F73928F90E03F
:1003200008958FEF9FEF0895FC01918D828D9817AE
:1003300031F0828DE80FF11D858D90E008958FEFEB
:100340009FEF0895FC01918D228D892F90E0805CB4
:100350009F4F821B91098F739927089586EE93E032
:10036000F1DF21E0892B09F420E0822F0895FC01C0
:10037000A48DA80FB92FB11DA35ABF4F2C91848D06
:1003800090E001968F739927848FA689B7892C9363
:10039000A089B1898C91837080648C93938D848DB6
:1003A000981306C00288F389E02D80818F7D8083B9
:1003B0000895EF92FF920F931F93CF93DF93EC0179
:1003C00081E0888F9B8D8C8D98131AC0E889F989FC
:1003D000808185FF15C09FB7F894EE89FF896083FF
:1003E000E889F98980818370806480839FBF81E080
:1003F00090E0DF91CF911F910F91FF90EF900895C2
:10040000F62E0B8D10E00F5F1F4F0F731127E02E9C
:100410008C8D8E110BC00FB607FCFACFE889F989D5
:10042000808185FFF5CFCE01A2DFF2CFEB8DEC0FFF
:10043000FD2FF11DE35AFF4FF0829FB7F8940B8F09
:10044000EA89FB8980818062D0CFCF93DF93EC0172
:10045000888D8823B1F0AA89BB89E889F9898C91B4
:1004600085FD03C0808186FD0CC00FB607FCF7CF69
:100470008C9185FFF2CF808185FFEDCFCE0177DFB4
:10048000EACFDF91CF910895CF93C1E086EE93E05C
:1004900059DF892B91F086EE93E032DF9091E303F0
:1004A000E92FF0E0E753FC4F80839F5F9093E303D5
:1004B000843061F7C093E403E9CFCF9108954EDF14
:1004C0008111E2DF80E090E0892B49F080E090E04C
:1004D000892B29F00E94000081110E94000080E019
:1004E00090E0892B49F080E090E0892B29F00E9470
:1004F000000081110E94000080E090E0892B49F00B
:1005000080E090E0892B29F00E94000081110C947A
:1005100000000895282F30E0F901EC51FF4F94912D
:10052000F901EC55FE4F4491225A3E4FF9012491B6
:10053000222309F434C0992309F191509231F0F447
:10054000E92FF0E08827E955FD4F8F4FA9C4D80265
:10055000DC02B902D002D402BE02DF02E502E902E7
:10056000EF02F302F702FD020103BE0205030B03D3
:100570000F03809180008F7780938000E22FF0E05E
:10058000EE0FFF1FE65DFE4FA591B4918FB7F89473
:10059000EC91611148C040954E234C938FBF089554
:1005A000809180008F7DE8CF80918000877FE4CFAD
:1005B00084B58F7784BDE2CF84B58F7DFBCF8091EA
:1005C000B0008F778093B000D9CF8091B0008F7D3D
:1005D000F9CF809190008F7780939000CFCF80915A
:1005E00090008F7DF9CF80919000877FF5CF80912B
:1005F000A0008F778093A000C1CF8091A0008F7D55
:10060000F9CF8091A000877FF5CF809120018F776F
:1006100080932001B3CF809120018F7DF9CF80910D
:100620002001877FF5CF4E2BB8CF3FB7F89480914C
:10063000C5039091C603A091C703B091C80326B526
:10064000A89B05C02F3F19F00196A11DB11D3FBF0A
:10065000BA2FA92F982F8827BC01CD01620F711DD9
:10066000811D911D42E0660F771F881F991F4A95D3
:10067000D1F7089566E086EE93E09BDE64E086EEB7
:1006800093E097CECF93DF93D72FC82F862FDDDD52
:100690008D2FDBDD8C2FDF91CF91D7CDFC01019029
:1006A0000020E9F73197AF01481B590BBC0186EEDA
:1006B00093E0EACD8F929F92AF92BF920F931F93D8
:1006C000CF93DF93CDB7DEB7A1970FB6F894DEBF17
:1006D0000FBECDBF19A2423008F44AE08E010F5D73
:1006E0001F4F842E912CB12CA12CA5019401B6D3BF
:1006F000E62FB901CA01EA30ECF4E05DD801EE93CF
:100700008D01232B242B252B81F790E080E010977F
:1007100011F0CD01C3DFA1960FB6F894DEBF0FBE76
:10072000CDBFDF91CF911F910F91BF90AF909F9060
:100730008F900895E95CE2CFCF93DF93AFDFEC01B8
:100740008CE292E0ABDF8C0F9D1FDF91CF9108957B
:10075000CF93DF938230E1F040F48823B1F0813011
:1007600059F08FE292E0E8DF09C0833059F084301D
:10077000C1F7C4E8D3E002C0C8EAD3E0CE01DF91FC
:10078000CF910895C0E9D3E0F9CFC4EBD3E0F6CF21
:10079000CCE9D3E0F3CF1F920F920FB60F92112442
:1007A0000BB60F922F933F934F935F936F937F936B
:1007B0008F939F93AF93BF93EF93FF9386EE93E056
:1007C000D6DDFF91EF91BF91AF919F918F917F9176
:1007D0006F915F914F913F912F910F900BBE0F90B2
:1007E0000FBE0F901F9018951F920F920FB60F9289
:1007F00011240BB60F922F938F939F93EF93FF9338
:10080000E091F603F091F7038081E091FC03F09111
:10081000FD0382FD1DC090818091FF038F5F8F7368
:1008200020910004821741F0E091FF03F0E0EA51CB
:10083000FC4F958F8093FF03FF91EF919F918F91D4
:100840002F910F900BBE0F900FBE0F901F90189519
:100850008081F2CF1F920F920FB60F9211242F9327
:100860003F938F939F93AF93BF938091C1039091D8
:10087000C203A091C303B091C4033091C00323E02D
:10088000230F2D3758F50196A11DB11D2093C003EC
:100890008093C1039093C203A093C303B093C40396
:1008A0008091C5039091C603A091C703B091C8037E
:1008B0000196A11DB11D8093C5039093C603A0931B
:1008C000C703B093C803BF91AF919F918F913F91A0
:1008D0002F910F900FBE0F901F90189526E8230FB1
:1008E0000296A11DB11DD2CFCF93DF9300D000D0CF
:1008F00000D01F921F92CDB7DEB7789484B5826086
:1009000084BD84B5816084BD85B5826085BD85B5B3
:10091000816085BD80916E00816080936E00109231
:1009200081008091810082608093810080918100AC
:10093000816080938100809180008160809380003D
:100940008091B10084608093B1008091B00081609B
:100950008093B0008091910082608093910080919B
:1009600091008160809391008091900081608093DC
:1009700090008091A10082608093A1008091A100ED
:1009800081608093A1008091A00081608093A0008D
:1009900080912101826080932101809121018160F9
:1009A00080932101809120018160809320018091BA
:1009B0007A00846080937A0080917A0082608093CC
:1009C0007A0080917A00816080937A0080917A0029
:1009D000806880937A001092C100E091F603F09154
:1009E000F70382E08083E091F203F091F303108239
:1009F000E091F403F091F50380E180831092FE030F
:100A0000E091FA03F091FB0386E08083E091F80324
:100A1000F091F903808180618083E091F803F09187
:100A2000F903808188608083E091F803F091F903F5
:100A3000808180688083E091F803F091F9038081E0
:100A40008F7D808385E492E077DE8FE592E074DE2F
:100A500088E692E071DE8CE992E06EDE85EF92E04E
:100A60006BDE89E193E068DE60911E0270911F02E7
:100A7000809120029091210205DE60911A0270910E
:100A80001B0280911C0290911D02FCDD60911602F8
:100A9000709117028091180290911902F3DD609114
:100AA0001202709113028091140290911502EADDF6
:100AB00060911E0270911F0280912002909121028C
:100AC000E1DD61E086E226DD61E088E323DD61E0CF
:100AD0008EE320DD61E08EE11DDD61E086E21ADD5E
:100AE00089E18093E203209116022A833091170254
:100AF0003B83409118024C83509119025D83809191
:100B000012028E83909113029F83A0911402A887F2
:100B1000B0911502B98780901E0290901F02E0905C
:100B20002002B0902102A0901A028091E403882351
:100B300009F47EC0E091CC03F091CD03FE27EF27AE
:100B4000FE27FB87EA878091C903813009F065C0E1
:100B5000EF2B09F461C03090CA032090CB032091A1
:100B6000CE0388EE93E0289FB001299F700D1124D9
:100B7000603DF7E07F0714F460ED77E02B01770F1D
:100B800066087708832DE4DD6C018EE393E086DD53
:100B9000632D70E090E080E04AE08CDD8CE292E032
:100BA0007DDD8DE493E07ADD622D70E090E080E001
:100BB0004AE080DD8CE292E071DD88E593E06EDD55
:100BC0002A853B85B90190E080E04AE073DD8CE244
:100BD00092E064DD8FE593E061DD4AE0C301B2019C
:100BE00069DD8CE292E05ADDD6012C92EA85FB8524
:100BF0001296FC93EE93119713964D925D926D921F
:100C00007C92169712DD460E571E681E791EF6015D
:100C100047825086618672862DDDE9ECF3E089E13A
:100C2000DF011D928A95E9F71092E3031092E40325
:100C3000FCDC2B013C0132E2C32E32E0D32EF60164
:100C40008081F2E0CF0ED11C823009F45BC008F045
:100C500043C0882309F448C0813009F44BC078DDD3
:100C60009B878A87DC0111968D919C911297892B25
:100C700009F49DC017968D919D910D90BC91A02D6A
:100C8000892B8A2B8B2B89F4D0DCEA85FB85238189
:100C9000348145815681DC01CB01820F931FA41F53
:100CA000B51F87839087A187B287AA85BB851B96CE
:100CB0008C91811107C060E0812F2CDC81E0EA85F6
:100CC000FB858387AA85BB858C91882301F18130C0
:100CD00009F495C0CFDC1EC0853008F0C0CF0E816E
:100CE000FF801885998504C0082DF92C1E2D9B2D99
:100CF0009983B5CF0A2DF0901B0210911C029091A0
:100D00001D02F6CF0A81FB801C819D81F1CF61E03D
:100D1000802F00DCEA85FB8587819085A185B285DF
:100D2000A3019201281B390B4A0B5B0BDA01C901A5
:100D3000438154816581768184179507A607B7079B
:100D400078F561E08F2DE6DB3981832F90E08230EA
:100D5000910538F0880F991F880F991F0597019703
:100D6000F1F760E08F2DD6DBAA85BB8511968D91BA
:100D70009C911297019712969C938E931197FD0167
:100D800087819085A185B285438154816581768173
:100D9000840F951FA61FB71F87839087A187B287EF
:100DA000AA85BB8511968D919C91892B01F5EA85C9
:100DB000FB8583858823D9F082E793E0BDDC61E081
:100DC000812FA8DBAA85BB851B961C921B971C92C2
:100DD00012961C921E921197FD01138214821582A5
:100DE000168217961D921D921D921C921A97BCE2B4
:100DF000CB16B2E0DB0609F022CF61DB96CE60E0D5
:100E000087CFE6EEF3E01382128288EE93E0A0E053
:100E1000B0E084839583A683B78384E092E09183D6
:100E2000808385EC90E09587848784EC90E09787B9
:100E3000868780EC90E0918B808B81EC90E0938BA7
:100E4000828B82EC90E0958B848B86EC90E0978B84
:100E5000868B118E128E138E148E0895A1E21A2E97
:100E6000AA1BBB1BFD010DC0AA1FBB1FEE1FFF1F4E
:100E7000A217B307E407F50720F0A21BB30BE40B9E
:100E8000F50B661F771F881F991F1A9469F76095E5
:100E90007095809590959B01AC01BD01CF0108959F
:100EA000EE0FFF1F881F8BBF0790F691E02D19945E
:040EB000F894FFCFE4
:100EB40000000000D901440171012502A201800152
:100EC400940122241EC8302E3EC83D3C38C8373613
:100ED40026C8000001000200030004000D0A004EB1
:100EE4006F206D6F746F7220737461746520666F08
:100EF400756E642E0052414D507320312E34207390
:100F0400746570706572206472697665722E00571C
:100F1400656C636F6D65210050726F746F636F6CE5
:100F240020726573657276657320666972737420C6
:100F340074776F206269747320666F7220666C6FB9
:100F44007720636F6E74726F6C2E20005061636B38
:100F540065743A204D4F544F525F5041434B4554B2
:100F6400203D205041434B45545F545950455F4305
:100F7400484152204D4F544F525F4E554D204449E5
:100F8400522053544550535F312053544550535FBE
:100F940032204D494C4C495F4245545745454E20FB
:100FA4003078303400456E636F64653A2056414CA6
:100FB4005545203D202856414C5545203C3C203287
:100FC40029207C2030783033004465636F64653AAF
:100FD4002056414C5545203D202856414C5545202E
:100FE4003E3E20322920267E2030784330004D6F4B
:100FF400746F72206E756D6265722023006469726D
:10100400656374696F6E3A0073746570733A006D4A
:101014006963726F5365636F6E647344656C617961
:101024003A0044697361626C6564206D6F746F7219
:021034000000BA
:00000001FF
