:10000000F5C0000021C100001FC100001DC100009B
:100010001BC1000019C1000017C1000015C100007C
:1000200013C1000011C100000FC100000DC100008C
:100030000BC1000009C1000007C1000005C100009C
:1000400003C1000001C10000FFC00000FDC00000AE
:10005000FBC00000F9C00000F7C00000EBC30000C7
:10006000F3C00000B1C3000086C30000EDC0000073
:10007000EBC00000E9C00000E7C00000E5C00000E0
:10008000E3C00000E1C00000DFC00000DDC00000F0
:10009000DBC00000D9C00000D7C00000D5C0000000
:1000A000D3C00000D1C00000CFC00000CDC0000010
:1000B000CBC00000C9C00000C7C00000C5C0000020
:1000C000C3C00000C1C00000BFC00000BDC0000030
:1000D000BBC00000B9C00000B7C00000B5C0000040
:1000E000B3C0000000000A0B02090C0D0E08070344
:1000F00004010000000000000000000000000000FB
:1001000000000000000000000000000000000000EF
:1001100012111000000000000000000000000000AC
:100120000000000000000000000000002200250088
:1001300028002B002E0031003400020100000501D0
:1001400008010B0100002100240027002A002D00D7
:100150003000330001010000040107010A01050518
:100160000505070508080808020202020A0A08082D
:10017000040404040101010101010101030303035B
:1001800003030303040707070C0C0C0C0C0C0C0CEA
:100190000202020206060606060606060B0B0B0BFB
:1001A0000B0B0B0B01021020200808102040102020
:1001B000408002010201080402010102040810202B
:1001C0004080804020100804020180040201804029
:1001D0002010080402010804020101020408102092
:1001E000408001020408102040809D0611241FBE9B
:1001F000CFEFD1E2DEBFCDBF00E00CBF14E0A0E046
:10020000B2E0ECEEFDE000E00BBF02C007900D9203
:10021000A039B107D9F725E0A0E9B4E001C01D92EB
:10022000AE36B207E1F710E0C6EFD0E000E005C05F
:1002300021970109802FFE01CFD5C53FD10780E06E
:100240000807B1F741D3D0C5DBCE90E0FC01EC55F7
:10025000FE4F2491825A9E4FFC018491882399F08D
:1002600090E0880F991FFC01EC5BFE4FA591B491C3
:10027000FC01E65DFE4F859194918FB7F894EC9167
:10028000E22BEC938FBF0895AF92BF92CF92DF9293
:10029000EF92FF920F931F93CF93DF936C017B013B
:1002A0008B01040F151FEB015E01AE18BF08C017CC
:1002B000D10759F06991D601ED91FC910190F0813F
:1002C000E02DC6011995892B79F7C501DF91CF91F2
:1002D0001F910F91FF90EF90DF90CF90BF90AF9064
:1002E0000895FC01538D448D252F30E0842F90E03C
:1002F000821B930B541710F0CF9608950197089521
:10030000FC01918D828D981761F0A28DAE0FBF2FE9
:10031000B11D5D968C91928D9F5F9F73928F90E03F
:1003200008958FEF9FEF0895FC01918D828D9817AE
:1003300031F0828DE80FF11D858D90E008958FEFEB
:100340009FEF0895FC01918D228D892F90E0805CB4
:100350009F4F821B91098F739927089581ED94E037
:10036000F1DF21E0892B09F420E0822F0895FC01C0
:10037000A48DA80FB92FB11DA35ABF4F2C91848D06
:1003800090E001968F739927848FA689B7892C9363
:10039000A089B1898C91837080648C93938D848DB6
:1003A000981306C00288F389E02D80818F7D8083B9
:1003B0000895EF92FF920F931F93CF93DF93EC0179
:1003C00081E0888F9B8D8C8D98131AC0E889F989FC
:1003D000808185FF15C09FB7F894EE89FF896083FF
:1003E000E889F98980818370806480839FBF81E080
:1003F00090E0DF91CF911F910F91FF90EF900895C2
:10040000F62E0B8D10E00F5F1F4F0F731127E02E9C
:100410008C8D8E110BC00FB607FCFACFE889F989D5
:10042000808185FFF5CFCE01A2DFF2CFEB8DEC0FFF
:10043000FD2FF11DE35AFF4FF0829FB7F8940B8F09
:10044000EA89FB8980818062D0CFCF93DF93EC0172
:10045000888D8823B1F0AA89BB89E889F9898C91B4
:1004600085FD03C0808186FD0CC00FB607FCF7CF69
:100470008C9185FFF2CF808185FFEDCFCE0177DFB4
:10048000EACFDF91CF910895CF93C1E081ED94E061
:1004900059DF892B91F081ED94E032DF9091CE0409
:1004A000E92FF0E0E155FB4F80839F5F9093CE04EE
:1004B0009E3161F7C093CF04E9CFCF9108954EDF0D
:1004C0008111E2DF80E090E0892B49F080E090E04C
:1004D000892B29F00E94000081110E94000080E019
:1004E00090E0892B49F080E090E0892B29F00E9470
:1004F000000081110E94000080E090E0892B49F00B
:1005000080E090E0892B29F00E94000081110C947A
:1005100000000895282F30E0F901EC51FF4F94912D
:10052000F901EC55FE4F4491225A3E4FF9012491B6
:10053000222309F434C0992309F191509231F0F447
:10054000E92FF0E08827E955FD4F8F4F45C4D802C9
:10055000DC02B902D002D402BE02DF02E502E902E7
:10056000EF02F302F702FD020103BE0205030B03D3
:100570000F03809180008F7780938000E22FF0E05E
:10058000EE0FFF1FE65DFE4FA591B4918FB7F89473
:10059000EC91611148C040954E234C938FBF089554
:1005A000809180008F7DE8CF80918000877FE4CFAD
:1005B00084B58F7784BDE2CF84B58F7DFBCF8091EA
:1005C000B0008F778093B000D9CF8091B0008F7D3D
:1005D000F9CF809190008F7780939000CFCF80915A
:1005E00090008F7DF9CF80919000877FF5CF80912B
:1005F000A0008F778093A000C1CF8091A0008F7D55
:10060000F9CF8091A000877FF5CF809120018F776F
:1006100080932001B3CF809120018F7DF9CF80910D
:100620002001877FF5CF4E2BB8CF3FB7F89480914C
:10063000AB049091AC04A091AD04B091AE0426B58A
:10064000A89B05C02F3F19F00196A11DB11D3FBF0A
:10065000BA2FA92F982F8827BC01CD01620F711DD9
:10066000811D911D42E0660F771F881F991F4A95D3
:10067000D1F70895CF93DF93D72FC82F862FE5DDCD
:100680008D2FE3DD8C2FDF91CF91DFCD833089F08B
:1006900028F4813059F0823031F008958630E8F73F
:1006A00082E994E008958CE994E0089581EA94E069
:1006B000089587E994E00895FC0101900020E9F78E
:1006C0003197AF01481B590BBC0181ED94E0DCCDA3
:1006D000CF93DF93F1DFEC018CE292E0EDDF8C0F42
:1006E0009D1FDF91CF910895CF92DF92EF92FF92FD
:1006F0000F931F93CF93DF93CDB7DEB7A1970FB6BC
:10070000F894DEBF0FBECDBF282F30E050E040E0B0
:1007100019A28E010F5D1F4F8AE0C82ED12CE12C4B
:10072000F12CCA01B901A701960134D3605DF8012B
:1007300062938F01211531054105510591F73097DD
:10074000B9F0CF01B9DF8C018CE292E0B5DF800F08
:10075000911FA1960FB6F894DEBF0FBECDBFDF91FB
:10076000CF911F910F91FF90EF90DF90CF90089560
:1007700010E000E0E9CF1F920F920FB60F92112404
:100780000BB60F922F933F934F935F936F937F938B
:100790008F939F93AF93BF93EF93FF9381ED94E07B
:1007A000E6DDFF91EF91BF91AF919F918F917F9186
:1007B0006F915F914F913F912F910F900BBE0F90D2
:1007C0000FBE0F901F9018951F920F920FB60F92A9
:1007D00011240BB60F922F938F939F93EF93FF9358
:1007E000E091E104F091E2048081E091E704F0916E
:1007F000E80482FD1DC090818091EA048F5F8F73B1
:100800002091EB04821741F0E091EA04F0E0EF520E
:10081000FB4F958F8093EA04FF91EF919F918F9109
:100820002F910F900BBE0F900FBE0F901F90189539
:100830008081F2CF1F920F920FB60F9211242F9347
:100840003F938F939F93AF93BF938091A704909111
:10085000A804A091A904B091AA043091A60423E0B1
:10086000230F2D3758F50196A11DB11D2093A60425
:100870008093A7049093A804A093A904B093AA041A
:100880008091AB049091AC04A091AD04B091AE0402
:100890000196A11DB11D8093AB049093AC04A0936D
:1008A000AD04B093AE04BF91AF919F918F913F91F2
:1008B0002F910F900FBE0F901F90189526E8230FD1
:1008C0000296A11DB11DD2CFCF93DF93CDB7DEB776
:1008D000AA970FB6F894DEBF0FBECDBF789484B54B
:1008E000826084BD84B5816084BD85B5826085BD2C
:1008F00085B5816085BD80916E00816080936E00BA
:1009000010928100809181008260809381008091AB
:10091000810081608093810080918000816080935C
:1009200080008091B10084608093B1008091B0001C
:1009300081608093B00080919100826080939100EB
:1009400080919100816080939100809190008160FE
:10095000809390008091A10082608093A10080919B
:10096000A10081608093A1008091A00081608093AC
:10097000A00080912101826080932101809121015A
:10098000816080932101809120018160809320010A
:1009900080917A00846080937A0080917A008260EE
:1009A00080937A0080917A00816080937A008091B0
:1009B0007A00806880937A001092C100E091E1048F
:1009C000F091E20482E08083E091DD04F091DE04A6
:1009D0001082E091DF04F091E00480E180831092C6
:1009E000E904E091E504F091E60486E08083E0917B
:1009F000E304F091E404808180618083E091E3046A
:100A0000F091E404808188608083E091E304F091B8
:100A1000E404808180688083E091E304F091E40441
:100A200080818F7D80838FE292E052DE89E492E0C4
:100A30004FDE86E592E04CDE86E692E049DE86E710
:100A400092E046DE86E892E043DE86E992E040DE10
:100A500086EA92E03DDE8DEA92E03ADE8CEB92E0AF
:100A600037DE8EE292E034DE85ED92E031DE81EE1B
:100A700092E02EDE81EF92E02BDE8EE292E028DE25
:100A800082E093E025DE89E193E022DE89E693E0CF
:100A90001FDE8AEB93E01CDE8BE094E019DE8EE231
:100AA00092E016DE81E394E013DE60911E02709105
:100AB0001F028091200290912102DCDD60911A02D8
:100AC00070911B0280911C0290911D02D3DD6091F8
:100AD0001602709117028091180290911902CADDD6
:100AE000609112027091130280911402909115028C
:100AF000C1DD60911E0270911F02809120029091D1
:100B00002102B8DD61E086E205DD61E088E302DD17
:100B100061E08EE3FFDC61E08EE1FCDC61E086E217
:100B2000F9DC8EE18093CD04CE014F969CA38BA37C
:100B3000909117029DA3A0911802AEA3B091190243
:100B4000BFA3E0911302E8A7F0911402F9A7209146
:100B500015022AA740901F0250902002C090210247
:100B600070901B0260901C028091CF04882309F4CE
:100B700049C082E2EFEAF4E0DE01119601900D92A5
:100B80008A95E1F78E010F5F1F4F8981813041F512
:100B9000D80113968C90139714968C911497982CD7
:100BA000882E81149104A1F011969C9011971296B1
:100BB0002C90129715963C9087E494E07DDD892D6A
:100BC00093DD892D63DDFC012082818232821382D4
:100BD00066E081ED94E0EDDB6AE081ED94E0E9DB35
:100BE0000A5F1F4FEBA1FCA1E017F10771F6EFEAD6
:100BF000F4E08EE1DF011D928A95E9F71092CE04B0
:100C00001092CF0432E2832E32E0932E30901D02F8
:100C1000F4018081F2E08F0E911C833009F489C0C9
:100C200008F079C0813009F47DC0823009F47EC0BB
:100C30002DDD8C01DC0111968C911197882309F42C
:100C400038C014968C91811106C060E08E2D62DC54
:100C500081E0F8018483D80113969C911397129632
:100C60008C911297891728F513961C9286E594E0CB
:100C70002FDD82E694E020DD8F2D36DD8DE694E0D9
:100C80001BDD8D2D31DD61E08F2D44DC8D2D90E05D
:100C90008230910538F0880F991F880F991F0597AA
:100CA0000197F1F760E08F2D35DCF80181818150EB
:100CB0008183D80113968C9113978F5F13968C9331
:100CC000139711968C911197811110C014968C91E5
:100CD000882361F081E894E0FBDC61E08E2D1ADC72
:100CE000F80114821082118212821382FCE28F16A4
:100CF000F2E09F0609F08CCF98DC4B015C0195DC9B
:100D0000681979098A099B09683E73408105910534
:100D1000B0F3D5DB29CF863008F08ACFF8A4E9A458
:100D2000DAA486CFF42CE52CDC2C82CF7301D32CF3
:100D30007FCFFDA0EEA0DFA07BCFE1EDF4E013823A
:100D4000128288EE93E0A0E0B0E084839583A683CE
:100D5000B78384E092E09183808385EC90E095876F
:100D6000848784EC90E09787868780EC90E0918B75
:100D7000808B81EC90E0938B828B82EC90E0958B62
:100D8000848B86EC90E0978B868B118E128E138E5F
:100D9000148E0895A1E21A2EAA1BBB1BFD010DC0E3
:100DA000AA1FBB1FEE1FFF1FA217B307E407F5071B
:100DB00020F0A21BB30BE40BF50B661F771F881FF7
:100DC000991F1A9469F760957095809590959B018D
:100DD000AC01BD01CF010895EE0FFF1F881F8BBF2F
:0C0DE0000790F691E02D1994F894FFCFD5
:100DEC0000000000D901440171012502A20180011B
:100DFC00940122241EC8302E3EC83D3C38C83736DC
:100E0C0026C8010002000300040005000D0A005270
:100E1C00414D507320312E3420737465707065729F
:100E2C00206472697665722E0020204D4F544F520B
:100E3C005F4E554D3A0020202020202058202020A5
:100E4C0020203D2030002020202020205920202050
:100E5C0020203D2031002020202020205A2020203E
:100E6C0020203D2032002020202020204531202031
:100E7C0020203D203300202020202020453220201F
:100E8C0020203D2034002020202020200020205035
:100E9C0041434B45545F545950455300202020206A
:100EAC00202030783031203D206D6F746F725F7769
:100EBC0072697465002020444952454354494F4E91
:100ECC000020202020202030783030203D20435737
:100EDC000020202020202030783031203D2043433A
:100EEC00570020204D4F544F52204D4F5645205007
:100EFC00524F544F434F4C3A0020202020202020AA
:100F0C0020202020202020202020202020202020D5
:100F1C0030202020202020202020202020202020B5
:100F2C00312020202020322020202020332020207F
:100F3C00202020202034202020202020203520207C
:100F4C0020202020202020360020204D4F544F52AE
:100F5C005F5041434B4554203D205041434B455439
:100F6C005F545950455F43484152204D4F544F52A6
:100F7C005F4E554D204449522053544550535F31D8
:100F8C002053544550535F32204D494C4C495F42DD
:100F9C0045545745454E205C6E0020204D4F544F14
:100FAC00525F5041434B4554203D2020202030318E
:100FBC002020202020202020202020202020202025
:100FCC0030312020202030302020202030332020B1
:100FDC0020202045382020202020202020303520A3
:100FEC00202020202020202030410020204D4F5454
:100FFC004F525F5041434B4554203D202020203020
:10100C007820303130313030303345383035304164
:10101C0000202048414C542020202020202020203B
:10102C003D2030783046004D6F746F72206E756DB8
:10103C0062657220230057726F7465206D6F746F38
:10104C007200537465702070696E3A200044656CB0
:10105C006179206D69726F7365636F6E64733A208A
:10106C000044697361626C6564206D6F746F72000B
:00000001FF
