:10000000F5C0000021C100001FC100001DC100009B
:100010001BC1000019C1000017C1000015C100007C
:1000200013C1000011C100000FC100000DC100008C
:100030000BC1000009C1000007C1000005C100009C
:1000400003C1000001C10000FFC00000FDC00000AE
:10005000FBC00000F9C00000F7C0000087C300002B
:10006000F3C000004DC3000022C30000EDC000003B
:10007000EBC00000E9C00000E7C00000E5C00000E0
:10008000E3C00000E1C00000DFC00000DDC00000F0
:10009000DBC00000D9C00000D7C00000D5C0000000
:1000A000D3C00000D1C00000CFC00000CDC0000010
:1000B000CBC00000C9C00000C7C00000C5C0000020
:1000C000C3C00000C1C00000BFC00000BDC0000030
:1000D000BBC00000B9C00000B7C00000B5C0000040
:1000E000B3C0000000000A0B02090C0D0E08070344
:1000F00004010000000000000000000000000000FB
:1001000000000000000000000000000000000000EF
:1001100012111000000000000000000000000000AC
:100120000000000000000000000000002200250088
:1001300028002B002E0031003400020100000501D0
:1001400008010B0100002100240027002A002D00D7
:100150003000330001010000040107010A01050518
:100160000505070508080808020202020A0A08082D
:10017000040404040101010101010101030303035B
:1001800003030303040707070C0C0C0C0C0C0C0CEA
:100190000202020206060606060606060B0B0B0BFB
:1001A0000B0B0B0B01021020200808102040102020
:1001B000408002010201080402010102040810202B
:1001C0004080804020100804020180040201804029
:1001D0002010080402010804020101020408102092
:1001E00040800102040810204080230611241FBE15
:1001F000CFEFD1E2DEBFCDBF00E00CBF12E0A0E048
:10020000B2E0E8EFFCE000E00BBF02C007900D9207
:10021000A037B107D9F723E0A0E7B2E001C01D92F3
:10022000AE34B207E1F710E0C6EFD0E000E005C061
:1002300021970109802FFE0155D5C53FD10780E0E8
:100240000807B1F7DDD256C5DBCE90E0FC01EC55D6
:10025000FE4F2491825A9E4FFC018491882399F08D
:1002600090E0880F991FFC01EC5BFE4FA591B491C3
:10027000FC01E65DFE4F859194918FB7F894EC9167
:10028000E22BEC938FBF0895AF92BF92CF92DF9293
:10029000EF92FF920F931F93CF93DF936C017B013B
:1002A0008B01040F151FEB015E01AE18BF08C017CC
:1002B000D10759F06991D601ED91FC910190F0813F
:1002C000E02DC6011995892B79F7C501DF91CF91F2
:1002D0001F910F91FF90EF90DF90CF90BF90AF9064
:1002E0000895FC01538D448D252F30E0842F90E03C
:1002F000821B930B541710F0CF9608950197089521
:10030000FC01918D828D981761F0A28DAE0FBF2FE9
:10031000B11D5D968C91928D9F5F9F73928F90E03F
:1003200008958FEF9FEF0895FC01918D828D9817AE
:1003300031F0828DE80FF11D858D90E008958FEFEB
:100340009FEF0895FC01918D228D892F90E0805CB4
:100350009F4F821B91098F739927089581EB92E03B
:10036000F1DF21E0892B09F420E0822F0895FC01C0
:10037000A48DA80FB92FB11DA35ABF4F2C91848D06
:1003800090E001968F739927848FA689B7892C9363
:10039000A089B1898C91837080648C93938D848DB6
:1003A000981306C00288F389E02D80818F7D8083B9
:1003B0000895EF92FF920F931F93CF93DF93EC0179
:1003C00081E0888F9B8D8C8D98131AC0E889F989FC
:1003D000808185FF15C09FB7F894EE89FF896083FF
:1003E000E889F98980818370806480839FBF81E080
:1003F00090E0DF91CF911F910F91FF90EF900895C2
:10040000F62E0B8D10E00F5F1F4F0F731127E02E9C
:100410008C8D8E110BC00FB607FCFACFE889F989D5
:10042000808185FFF5CFCE01A2DFF2CFEB8DEC0FFF
:10043000FD2FF11DE35AFF4FF0829FB7F8940B8F09
:10044000EA89FB8980818062D0CFCF93DF93EC0172
:10045000888D8823B1F0AA89BB89E889F9898C91B4
:1004600085FD03C0808186FD0CC00FB607FCF7CF69
:100470008C9185FFF2CF808185FFEDCFCE0177DFB4
:10048000EACFDF91CF910895CF93C1E081EB92E065
:1004900059DF892B91F081EB92E032DF9091AE022F
:1004A000E92FF0E0E157FD4F80839F5F9093AE020C
:1004B0009E3161F7C093AF02E9CFCF9108954EDF2F
:1004C0008111E2DF80E090E0892B49F080E090E04C
:1004D000892B29F00E94000081110E94000080E019
:1004E00090E0892B49F080E090E0892B29F00E9470
:1004F000000081110E94000080E090E0892B49F00B
:1005000080E090E0892B29F00E94000081110C947A
:1005100000000895282F30E0F901EC51FF4F94912D
:10052000F901EC55FE4F4491225A3E4FF9012491B6
:10053000222309F434C0992309F191509231F0F447
:10054000E92FF0E08827E955FD4F8F4FCBC3D80244
:10055000DC02B902D002D402BE02DF02E502E902E7
:10056000EF02F302F702FD020103BE0205030B03D3
:100570000F03809180008F7780938000E22FF0E05E
:10058000EE0FFF1FE65DFE4FA591B4918FB7F89473
:10059000EC91611148C040954E234C938FBF089554
:1005A000809180008F7DE8CF80918000877FE4CFAD
:1005B00084B58F7784BDE2CF84B58F7DFBCF8091EA
:1005C000B0008F778093B000D9CF8091B0008F7D3D
:1005D000F9CF809190008F7780939000CFCF80915A
:1005E00090008F7DF9CF80919000877FF5CF80912B
:1005F000A0008F778093A000C1CF8091A0008F7D55
:10060000F9CF8091A000877FF5CF809120018F776F
:1006100080932001B3CF809120018F7DF9CF80910D
:100620002001877FF5CF4E2BB8CF66E081EB92E0BB
:10063000C0DE6AE081EB92E0BCCECF93DF93D72F90
:10064000C82F862F02DE8D2F00DE8C2FDF91CF91F9
:10065000FCCD833089F028F4813059F0823031F0BC
:1006600008958630E8F782E792E008958CE792E0FB
:10067000089581E892E0089587E792E00895FC01EB
:1006800001900020E9F73197AF01481B590BBC01DD
:1006900081EB92E0F9CDCF93DF93F1DFEC018CE2B7
:1006A00092E0EDDF8C0F9D1FDF91CF9108951F9297
:1006B0000F920FB60F9211240BB60F922F933F9308
:1006C0004F935F936F937F938F939F93AF93BF935A
:1006D000EF93FF9381EB92E04ADEFF91EF91BF91A0
:1006E000AF919F918F917F916F915F914F913F91CA
:1006F0002F910F900BBE0F900FBE0F901F9018956B
:100700001F920F920FB60F9211240BB60F922F93D8
:100710008F939F93EF93FF93E091C102F091C202F8
:100720008081E091C702F091C80282FD1DC09081D6
:100730008091CA028F5F8F732091CB02821741F0A4
:10074000E091CA02F0E0EF54FD4F958F8093CA020A
:10075000FF91EF919F918F912F910F900BBE0F9072
:100760000FBE0F901F9018958081F2CF1F920F92AD
:100770000FB60F9211242F933F938F939F93AF93B4
:10078000BF9380918B0290918C02A0918D02B091C9
:100790008E0230918A0223E0230F2D3758F50196FF
:1007A000A11DB11D20938A0280938B0290938C022D
:1007B000A0938D02B0938E02809186029091870261
:1007C000A0918802B09189020196A11DB11D80936C
:1007D000860290938702A0938802B0938902BF910A
:1007E000AF919F918F913F912F910F900FBE0F90DE
:1007F0001F90189526E8230F0296A11DB11DD2CF98
:10080000CF93DF93CDB7DEB7CA54D1090FB6F894B2
:10081000DEBF0FBECDBF789484B5826084BD84B541
:10082000816084BD85B5826085BD85B5816085BDEB
:1008300080916E00816080936E00109281008091A3
:10084000810082608093810080918100816080932B
:100850008100809180008160809380008091B10050
:1008600084608093B1008091B00081608093B0007B
:1008700080919100826080939100809191008160CD
:10088000809391008091900081608093900080918E
:10089000A10082608093A1008091A100816080937B
:1008A000A1008091A00081608093A000809121012F
:1008B00082608093210180912101816080932101D8
:1008C0008091200181608093200180917A00846072
:1008D00080937A0080917A00826080937A00809180
:1008E0007A00816080937A0080917A00806880939A
:1008F0007A001092C100E091C102F091C20282E040
:100900008083E091BD02F091BE021082E091BF02AF
:10091000F091C00280E180831092C902E091C5028B
:10092000F091C60286E08083E091C302F091C40298
:10093000808180618083E091C302F091C402808154
:1009400088608083E091C302F091C4028081806856
:100950008083E091C302F091C40280818F7D808307
:100960008FE292E098DE89E492E095DE60911E02CB
:1009700070911F0280912002909121025EDE6091B1
:100980001A0270911B0280911C0290911D0255DE8B
:1009900060911602709117028091180290911902CD
:1009A0004CDE6091120270911302809114029091BA
:1009B000150243DE60911E0270911F028091200299
:1009C000909121023ADE61E086E2A4DD61E088E3F5
:1009D000A1DD61E08EE39EDD61E08EE19BDD61E003
:1009E00086E298DD8EE18093AD02CE014F96269689
:1009F0009FAF8EAF2697909116022A969FAF2A97A7
:100A0000A09117022B96AFAF2B978091AF0288234E
:100A100009F461C082E2EFE8F2E0DE011196019094
:100A20000D928A95E1F78E010F5F1F4F898181300A
:100A300009F03CC0F801A3808481BA2CA82EA1142F
:100A4000B10499F1C1806280758082E592E017DE81
:100A50002C2D30E050E040E024961FAE249763E256
:100A6000862E912C8C0E9D1EF0E28F0E911CCA01D9
:100A7000B9012AE030E040E050E012D1605DD401DD
:100A80006E934D01211531054105510581F71097F0
:100A900011F0CD01F4DD8CE292E0F1DD8C2DD9DD99
:100AA000FC016082A18272821382BFDD0A5F1F4F48
:100AB0002696EEADFFAD26970E171F0709F0B6CFAD
:100AC000EFE8F2E08EE1DF011D928A95E9F71092DE
:100AD000AE021092AF0232E2A32E32E0B32EB091FA
:100AE00018022896BFAF2897E09119022996EFAF18
:100AF0002997C09012029090130280901402709077
:100B0000150260901E0250901F024090200230900B
:100B1000210220901A02D5018C91B2E0AB0EB11CDB
:100B20008330B1F1F0F4813019F1823049F191DD77
:100B30008C01FC018181882309F45EC084818111CC
:100B400007C060E08F2DE6DC81E0D80114968C931D
:100B5000F8018081882349F1813009F472C065DD94
:100B600027C0863020F7EC2CD92CF82C972D04C008
:100B7000E62CD52CF42C932D27969FAF2797D7CF13
:100B8000E22CD0901B02F0901C0290911D02F4CF39
:100B90002A96EFAC2A972B96DFAC2B972896FFACC2
:100BA000289729969FAD2997E7CF61E08E2DB2DC7B
:100BB000D80113969C91139712968C9112978917CE
:100BC000D8F413961C9261E08D2DA4DC2796BFAD5E
:100BD00027978B2F90E08230910538F0880F991F6E
:100BE000880F991F05970197F1F760E08D2D92DC32
:100BF000F801818181508183D80113968C911397DC
:100C00008F5F13968C93139711968C911197811186
:100C100010C014968C91882361F081E692E03BDD50
:100C200061E08F2D77DCF80114821082118212822C
:100C300013828CE292E08A159B0509F06CCF3FDCB1
:100C4000E4CE60E0B3CFE1EBF2E01382128288EEF3
:100C500093E0A0E0B0E084839583A683B78384E02B
:100C600092E09183808385EC90E09587848784EC83
:100C700090E09787868780EC90E0918B808B81EC69
:100C800090E0938B828B82EC90E0958B848B86EC4A
:100C900090E0978B868B118E128E138E148E089592
:100CA000A1E21A2EAA1BBB1BFD010DC0AA1FBB1F70
:100CB000EE1FFF1FA217B307E407F50720F0A21BE2
:100CC000B30BE40BF50B661F771F881F991F1A944F
:100CD00069F760957095809590959B01AC01BD0179
:100CE000CF010895EE0FFF1F881F8BBF0790F6916D
:080CF000E02D1994F894FFCFE8
:100CF80000000000D901440171012502A201800110
:100D0800940122241EC8302E3EC83D3C38C83736D0
:100D180026C8010002000300040005000D0A005265
:100D2800414D507320312E34207374657070657294
:100D3800206472697665722E0057656C636F6D6505
:100D480021004D6F746F72206E756D62657220237D
:100D58000044697361626C6564206D6F746F720022
:00000001FF
